:100000000C946E000C948B000C948B000C948B0061
:100010000C948B000C94C5000C948B000C948B00FA
:100020000C948B000C948B000C948B000C948B0024
:100030000C948B000C948B000C948B000C948B0014
:100040000C94F1060C948B000C948B000C948B0098
:100050000C942A060C94E8050C948B000C948B00ED
:100060000C948B000C948B000C948B000C948B00E4
:100070000C948B000C948B000C948B00537475645F
:10008000656E74204E756D6265723A20343838346E
:10009000303436380043535345323031302070729B
:1000A0006F6A656374206279204C6163686C616E6D
:1000B00020486F6C6C6964617900456C6576617489
:1000C0006F7220436F6E74726F6C6C6572001B5B95
:1000D000324A001B5B25643B2564480011241FBE87
:1000E000CFEFD8E0DEBFCDBF11E0A0E0B1E0E6E3A6
:1000F000F5E102C005900D92A836B107D9F722E0CC
:10010000A8E6B1E001C01D92A23AB207E1F70E9451
:10011000E5040C94990A0C940000E8E6F0E0808174
:10012000826080838BB382608BBBECE6F0E08081E1
:100130008F6080831092680108958091680118167D
:1001400014F5809169016FB7F89491E009C0F90145
:10015000E759FE4F4081F901E859FE4F40839F5F08
:10016000292F30E040916801042E000C550B241714
:1001700035076CF390916801915090936801662364
:100180001CF4789408958FEF08951F920F920FB684
:100190000F9211242F933F934F938F939F93EF933D
:1001A000FF9343B14F7080E026C090916801943076
:1001B0000CF5242F30E0082E02C0359527950A94BF
:1001C000E2F720FF17C020916D0130E0082E02C039
:1001D000359527950A94E2F720FD0CC0E09168015F
:1001E00091E09E0F909368010E2E000CFF0BE759D3
:1001F000FE4F80838F5F8430C0F240936D01FF918A
:10020000EF919F918F914F913F912F910F900FBE42
:100210000F901F9018950E942B0508951F93CF9360
:10022000DF93CDB7DEB728970FB6F894DEBF0FBEC9
:10023000CDBF0E942B0510E02CC0E12FF0E0EE0FA7
:10024000FF1FEC5EFE4F2081318130FF02C09FE036
:1002500001C090EF80E014C020FF08C0E1E0F0E0B2
:10026000EC0FFD1FE80FF11D908307C0E1E0F0E007
:10027000EC0FFD1FE80FF11D1082369527958F5F5B
:10028000883050F3BE016F5F7F4F812F0E940E05B3
:100290001F5F103190F228960FB6F894DEBF0FBEA4
:1002A000CDBFDF91CF911F9108950F931F93CF93EF
:1002B000DF93CDB7DEB728970FB6F894DEBF0FBE39
:1002C000CDBF082F19E03AC0402F50E023E030E0C6
:1002D000241B350B81E090E0BC0102C0660F771F44
:1002E0002A95E2F79B0120684C5F5F4F02C0880FA0
:1002F000991F4A95E2F7282B392B216080E015C021
:1003000020FF09C0E1E0F0E0EC0FFD1FE80FF11D58
:1003100090EF908307C0E1E0F0E0EC0FFD1FE80FE5
:10032000F11D1082369527958F5F883048F3BE0106
:100330006F5F7F4F812F0E940E051F5F1F3020F2DD
:1003400028960FB6F894DEBF0FBECDBFDF91CF91D8
:100350001F910F910895883008F56031F8F441300D
:1003600061F0423061F0433061F0443061F045307B
:1003700061F0463061F443E10BC04FE009C040EF4B
:1003800007C041E005C041E103C045E301C040E0D2
:10039000962F682F8FE0891B0E94EF0408950F931A
:1003A0001F930E94E106009170011091710120914C
:1003B000720130917301601771078207930709F486
:1003C00042C06093700170937101809372019093A9
:1003D000730190916F0181E0892780936F018823D9
:1003E00021F088B1806888B903C088B18F7788B957
:1003F00082B1807882B988B18F7B88B980916F0192
:100400008823C9F0E0918101EE230CF4ED5FE595BE
:10041000E59592B1F0E0EE5FFE4F8081892B82B9C5
:1004200080918401837019F088B1806488B988B1A3
:100430008F7788B908C092B180910001892B82B969
:1004400088B1806888B91F910F9108950E94EB04CC
:100450000E948D0040E060E07BE480E090E00E943C
:1004600095050E94C906789481B18F6781B982B1E0
:10047000807882B987B1806C87B988B1806888B983
:1004800088B18F7B88B908958F929F92AF92BF9267
:10049000CF92DF92EF92FF92CF93DF930E94C0063C
:1004A0006AE070E08AE090E00E94AF068AEB90E09C
:1004B0009F938F930E94AB076CE070E08AE090E01E
:1004C0000E94AF0685E990E09F938F930E94AB074F
:1004D0006EE070E08AE090E00E94AF068CE790E06A
:1004E0009F938F930E94AB070E940E010F900F9075
:1004F0000F900F900F900F90D1E0C0E00F2EF6E913
:100500008F2E912CA12CB12CF02DC12CD12C760149
:100510000E94E106DC01CB018C199D09AE09BF09DF
:1005200088169906AA06BB06C0F58C2F0E945501B5
:100530000E94E1066B017C01DD23B1F0CF5FC13089
:1005400041F00F2EF6E98F2E912CA12CB12CF02D1D
:1005500008C00F2EF0ED8F2EF7E09F2EA12CB12CAE
:10056000F02DC330D1F416C0C150C23041F00F2E6F
:10057000F6E98F2E912CA12CB12CF02D08C00F2E56
:10058000F4EF8F2E99249394A12CB12CF02DCC2331
:1005900019F003C0D0E001C0D1E00E94DC0588233F
:1005A00039F080919C0290919D020E94570701C0F2
:1005B0008FEF833739F0833529F00E949D008F3FFC
:1005C00009F4A6CFDF91CF91FF90EF90DF90CF900D
:1005D000BF90AF909F908F900895CF93C0E015C0CB
:1005E00042E060E08C2F0E94AB0142E064E08C2F7F
:1005F0000E94AB0142E068E08C2F0E94AB0142E018
:100600006CE08C2F0E94AB01CF5FC83048F3CF91D4
:100610000895609101016F3F49F0062E000C770BA1
:100620006F5F7F4F40E084E00E94AB0180917401D6
:100630008823F1F060917F01062E000C770B6F5F2D
:100640007F4F80918701883031F08C3031F08430D9
:1006500031F043E005C045E003C046E001C044E09E
:1006600084E00E94AB0180917F0180930101089595
:100670008FEF809301010895CF93DF9360916E0116
:10068000262F30E080918401082E000C990B8217F0
:1006900093071CF4C3E0C60F07C0281739071CF4E2
:1006A000C1E0C60F01C0C0E08C2F837051F040E064
:1006B0006C2F81E00E94AB0140E06C2F82E00E9431
:1006C000AB018091840180936E01C1E011C0D09193
:1006D0008401DC0F8D2F837051F041E06D2F81E09C
:1006E0000E94AB0141E06D2F82E00E94AB01CF5F21
:1006F000C43068F3DF91CF910895CF930E949D009D
:10070000C82F0E94DC05882339F080919C029091CB
:100710009D020E94570701C08FEF909174019111C3
:1007200066C02091810190918001291360C099B128
:100730009295969597709370913039F060F0923061
:1007400031F0933031F09FEF07C094E005C098E09E
:1007500003C09CE001C090E0CC2311F0803379F419
:10076000992309F444C09093870110927F0181E09E
:1007700080937401109280010E94090338C0C13037
:1007800011F0813379F4943091F19093870184E0F2
:1007900080937F0191E090937401809380010E9487
:1007A000090325C0C23011F0823379F49830F9F092
:1007B0009093870188E080937F0191E0909374018A
:1007C000809380010E94090312C0C33011F083336B
:1007D00071F49C3061F0909387018CE080937F01ED
:1007E00091E090937401809380010E940903CF915E
:1007F00008954C9B03C08AEF90E0089584E690E052
:1008000008950E94C0060E940B010E949D000E9454
:10081000E3050E94E10660937B0170937C01809365
:100820007D0190937E0110928401109280011092BC
:10083000810184E391E0909383018093820181E0C0
:10084000809375018FEF80938701809301010E944F
:100850003C030E94ED0210928401109280010E94DC
:10086000CF010E94F90390938601809385010E9435
:10087000E10600917B0110917C0120917D01309176
:100880007E01AB01BC01401B510B620B730B8091CD
:10089000850190918601A0E0B0E084179507A60736
:1008A000B70708F057C090918001809184018917A3
:1008B00074F48F5F8093840181E0809375018FE3EE
:1008C00091E09093830180938201C1E011C0981759
:1008D00074F481508093840181E08093750182E4F7
:1008E00091E09093830180938201C8E001C0C0E44D
:1008F00080917401882389F09091840180917F0117
:1009000098130BC01092740180918701809380012D
:100910008FEF809387010E94090380918401982FB3
:10092000937011F48093810180910001C81731F018
:10093000C093000182B18078C82BC2B90E943C03E9
:100940000E94E10660937B0170937C0180937D019E
:1009500090937E01809175018823A1F10E94C006C9
:100960008091810188230CF48D5FC82FC595C595B2
:100970006AE070E08AE090E00E94AF061F92CF9399
:1009800087E491E09F938F930E9495076CE070E05D
:100990008AE090E00E94AF06809183018F9380915E
:1009A00082018F9389E591E09F938F930E94950731
:1009B000109275018DB79EB708960FB6F8949EBF3A
:1009C0000FBE8DBF0E947D034ACF0E9426020E9467
:1009D00044020E94010480E80E947D0608951F934E
:1009E000CF93DF938031B0F46830A0F4142FC62F7A
:1009F000D82F81E00E94A9066C2F677080E1689F64
:100A0000900111248D2F8F70822B0E94A906812FB7
:100A10000E94A906DF91CF911F9108950F931F9314
:100A2000CF938031A0F48B01C82F83E00E94A906E8
:100A30008C2F8F700E94A906C0E007C0F801EC0F50
:100A4000F11D80810E94A906CF5FC830B8F3CF9115
:100A50001F910F9108958FE00E94A9060895CF93EA
:100A6000C82F8A3019F48DE00E942F059FB7907827
:100A700002C0992329F1809189018F3FD1F3F89425
:100A8000E091880181E08E0F80938801F0E0E657C5
:100A9000FE4FC083809189018F5F8093890180918F
:100AA00088018F3F11F410928801E1ECF0E0808121
:100AB00080628083992339F0789480E090E005C0CB
:100AC00081E090E002C080E090E0CF9108958091B5
:100AD0009B028823E1F32FB72078F8948091890254
:100AE00030919B0290E0831B91095AF4E0918902B6
:100AF00080919B02F0E0E81BF109E656FD4F8081F2
:100B00000AC0E091890280919B02F0E0E81BF109A4
:100B1000E657FD4F808190919B02915090939B02EC
:100B2000222309F0789490E00895109288011092A1
:100B300089011092890210929B0210929A024093AE
:100B40007601DC01CB01880F991FAA1FBB1F880FFC
:100B5000991FAA1FBB1F9C01AD01220F331F441F09
:100B6000551F60E072E18AE790E00E941607BA0123
:100B7000A9014F5F5F4F6F4F7F4FDB01CA011AF42E
:100B80000196A11DB11DB595A795979587950197DC
:100B90009093C5008093C400E1ECF0E088E180838D
:100BA000808180688083ECE9F2E086E091E09383C5
:100BB000828391838083089590919B0281E09111BB
:100BC00001C080E008951092890210929B0208955E
:100BD0001F920F920FB60F9211242F938F939F9312
:100BE000EF93FF9380918901882329F180918801F7
:100BF0002091890190E0821B91095AF4E0918801CB
:100C000080918901F0E0E81BF109E757FD4F9081E1
:100C10000AC0E091880180918901F0E0E81BF109A8
:100C2000E657FE4F90818091890181508093890120
:100C30009093C60005C0E1ECF0E080818F7D808359
:100C4000FF91EF919F918F912F910F900FBE0F9079
:100C50001F9018951F920F920FB60F9211242F9389
:100C60003F934F935F936F937F938F939F93AF9334
:100C7000BF93CF93EF93FF93C091C600809176010D
:100C8000882349F0809189018F3F29F060E070E06E
:100C90008C2F0E942F0580919B02803120F081E0F3
:100CA00080939A0218C0CD3009F4CAE0E09189021D
:100CB00081E08E0F80938902F0E0E657FD4FC083FC
:100CC00080919B028F5F80939B028091890280318B
:100CD00011F410928902FF91EF91CF91BF91AF91E2
:100CE0009F918F917F916F915F914F913F912F9144
:100CF0000F900FBE0F901F90189594B1906B94B900
:100D000095B1906195B990E59CBD883021F0803215
:100D100011F0823019F491E09DBD01C01DBC8032FC
:100D200069F028F4883071F0803161F00EC08034B1
:100D300029F0803851F48CB581608CBD8CB582600F
:100D40008CBD03C08CB581608CBD85B18F7E85B9AB
:100D500008958EBD0DB407FEFDCF8EB508959F9307
:100D60008F937F936F9383ED90E09F938F930E9477
:100D7000AB070F900F900F900F900F900F9008956A
:100D80008EEC90E09F938F930E94AB070F900F9093
:100D900008951092770110927801109279011092C3
:100DA0007A0116BC8CE787BD82E084BD83E085BDF7
:100DB000EEE6F0E080818260808385B3827085BB3F
:100DC00008958FB7282F2078F8946091770170915B
:100DD00078018091790190917A01222309F0789429
:100DE00008951F920F920FB60F9211248F939F9325
:100DF000AF93BF938091770190917801A091790191
:100E0000B0917A010196A11DB11D80937701909355
:100E10007801A0937901B0937A01BF91AF919F912E
:100E20008F910F900FBE0F901F901895052E97FB76
:100E30001EF400940E942D0757FD07D00E9435072D
:100E400007FC03D04EF40C942D0750954095309537
:100E500021953F4F4F4F5F4F089590958095709526
:100E600061957F4F8F4F9F4F0895A1E21A2EAA1BC5
:100E7000BB1BFD010DC0AA1FBB1FEE1FFF1FA2174A
:100E8000B307E407F50720F0A21BB30BE40BF50B47
:100E9000661F771F881F991F1A9469F760957095D0
:100EA000809590959B01AC01BD01CF010895CF9332
:100EB000DF93EC012B8120FF33C026FF0AC02F7B7C
:100EC0002B838E819F8101969F838E838A8190E000
:100ED00029C022FF0FC0E881F9818081082E000C13
:100EE000990B009719F420622B831AC03196F9836D
:100EF000E8830EC0EA85FB85099597FF09C02B8121
:100F0000019611F080E201C080E1822B8B8308C042
:100F10002E813F812F5F3F4F3F832E83992702C051
:100F20008FEF9FEFDF91CF910895A0E0B0E0EBE964
:100F3000F7E00C94720AAE014B5F5F4FFA016191CA
:100F40007191AF0180919E0290919F020E94D10702
:100F5000E2E00C948E0AA0E0B0E0E1EBF7E00C9444
:100F6000700AAE01495F5F4FDA016D917D91AD016D
:100F70000CE912E0F80182819381DC0113962C9137
:100F80001397286013962C930E94D107D8011296CC
:100F9000ED91FC9113972381277F2383E4E00C9448
:100FA0008C0AABE0B0E0E7EDF7E00C94620A6C016C
:100FB0007B018A01FC0117821682838181FFCCC1EB
:100FC000CE0101963C01F6019381F70193FD8591D5
:100FD00093FF81917F01882309F4BAC1853239F4E6
:100FE00093FD859193FF81917F01853229F4B601AC
:100FF00090E00E94C809E7CF912C212C312CFFE111
:10100000F315D8F08B3279F038F4803279F08332EE
:10101000A1F4232D20611DC08D3261F0803369F46D
:10102000232D216016C0832D8260382EE32DE460CD
:101030003E2E2AC0F32DF8601DC037FC2DC020EDD8
:10104000280F2A3040F08E32B9F436FC81C1232DAE
:101050002064322E19C036FE06C08AE0989E200D0C
:101060001124922E11C0EAE02E9E200D1124222E72
:10107000F32DF0623F2E08C08C3621F4832D80685A
:10108000382E02C0883641F4F70193FD859193FF15
:1010900081917F018111B3CF982F9F7D955493301B
:1010A00028F40C5F1F4F9FE399830DC0833631F006
:1010B000833771F0833509F059C021C0F801808170
:1010C00089830E5F1F4F88248394912C530113C092
:1010D0002801F2E04F0E511CF801A080B18036FECD
:1010E00003C0692D70E002C06FEF7FEFC5010E9461
:1010F000BD094C018201F32DFF773F2E16C0280158
:1011000022E0420E511CF801A080B18036FE03C0DF
:10111000692D70E002C06FEF7FEFC5010E94B20938
:101120004C01F32DF0683F2E820133FC1BC0822D51
:1011300090E088169906B0F4B60180E290E00E9433
:10114000C8092A94F4CFF50137FC859137FE8191C7
:101150005F01B60190E00E94C80921102A9421E0A5
:10116000821A91088114910471F7E8C0843611F055
:10117000893641F5F80137FE07C0608171818281AF
:1011800093810C5F1F4F08C060817181072E000C96
:10119000880B990B0E5F1F4FF32DFF763F2E97FFA5
:1011A00009C090958095709561957F4F8F4F9F4FA7
:1011B000F0683F2E2AE030E0A3010E94040A882E46
:1011C000861845C0853731F4232D2F7EB22E2AE0B4
:1011D00030E025C0932D997FB92E8F36C1F018F4D9
:1011E000883579F0B5C0803719F0883721F0B0C064
:1011F000E92FE061BE2EB4FE0DC0FB2DF460BF2EC2
:1012000009C034FE0AC0292F2660B22E06C028E08D
:1012100030E005C020E130E002C020E132E0F8011A
:10122000B7FE07C060817181828193810C5F1F4F7F
:1012300006C06081718180E090E00E5F1F4FA301C6
:101240000E94040A882E8618FB2DFF773F2E36FE5B
:101250000DC0232D2E7FA22E891458F434FE0BC00E
:1012600032FC09C0832D8E7EA82E05C0B82CA32C7D
:1012700003C0B82C01C0B92CA4FE0FC0FE01E80DBC
:10128000F11D8081803321F49A2D997EA92E09C009
:10129000A2FE06C0B394B39404C08A2D867809F0E8
:1012A000B394A3FC11C0A0FE06C0B21488F4280CAD
:1012B000922C9B180EC0B21460F4B60180E290E04C
:1012C0000E94C809B394F7CFB21418F42B1802C0C7
:1012D000982C212CA4FE10C0B60180E390E00E945F
:1012E000C809A2FE17C0A1FC03C088E790E002C0B5
:1012F00088E590E0B6010CC08A2D867859F0A1FEF1
:1013000002C08BE201C080E2A7FC8DE2B60190E052
:101310000E94C809891438F4B60180E390E00E9465
:10132000C8099A94F7CF8A94F301E80DF11D8081E2
:10133000B60190E00E94C8098110F5CF222009F47F
:1013400042CEB60180E290E00E94C8092A94F6CF0E
:10135000F6018681978102C08FEF9FEF2B96E2E125
:101360000C947E0AFC010590615070400110D8F782
:10137000809590958E0F9F1F0895FC0161507040DD
:1013800001900110D8F7809590958E0F9F1F0895BA
:101390000F931F93CF93DF93FB01238121FD03C0A4
:1013A0008FEF9FEF2CC022FF16C04681578124810A
:1013B00035814217530744F4A081B1819D012F5F0D
:1013C0003F4F318320838C93268137812F5F3F4F9E
:1013D0003783268314C08B01EC01FB010084F18567
:1013E000E02D0995892BE1F6D80116968D919C91F7
:1013F0001797019617969C938E931697CE01DF91BF
:10140000CF911F910F910895FA01AA27283051F129
:10141000203181F1E8946F936E7F6E5F7F4F8F4F25
:101420009F4FAF4FB1E03ED0B4E03CD0670F781F84
:10143000891F9A1FA11D680F791F8A1F911DA11D69
:101440006A0F711D811D911DA11D20D009F46894A2
:101450003F912AE0269F11243019305D3193DEF64A
:10146000CF010895462F4770405D4193B3E00FD000
:10147000C9F7F6CF462F4F70405D4A3318F0495DEB
:1014800031FD4052419302D0A9F7EACFB4E0A695CE
:101490009795879577956795BA95C9F700976105F0
:1014A000710508959B01AC010A2E06945795479546
:1014B00037952795BA95C9F7620F731F841F951F3B
:1014C000A01D08952F923F924F925F926F927F924C
:1014D0008F929F92AF92BF92CF92DF92EF92FF9244
:1014E0000F931F93CF93DF93CDB7DEB7CA1BDB0BF0
:1014F0000FB6F894DEBF0FBECDBF09942A88398895
:1015000048885F846E847D848C849B84AA84B9849B
:10151000C884DF80EE80FD800C811B81AA81B981A7
:10152000CE0FD11D0FB6F894DEBF0FBECDBFED01BB
:061530000895F894FFCFBE
:1015360040FF3F065B4F00000003000000002F0540
:1015460067050000E7012101E7012101E70100012C
:10155600FF00C300FF00810081008100810081003F
:101566008100FF0053746174696F6E617279005572
:101576007000446F776E0043757272656E74204C0E
:101586006576656C3A202564004469726563746902
:081596006F6E3A20257300007E
:00000001FF
