:100000000C946E000C948B000C948B000C948B0061
:100010000C948B000C94C5000C948B000C948B00FA
:100020000C948B000C948B000C948B000C948B0024
:100030000C948B000C948B000C948B000C948B0014
:100040000C9493070C948B000C948B000C948B00F5
:100050000C94CC060C948A060C948B000C948B00A8
:100060000C948B000C948B000C948B000C948B00E4
:100070000C948B000C948B000C948B00537475645F
:10008000656E74204E756D6265723A20343838346E
:10009000303436380043535345323031302070729B
:1000A0006F6A656374206279204C6163686C616E6D
:1000B00020486F6C6C6964617900456C6576617489
:1000C0006F7220436F6E74726F6C6C6572001B5B95
:1000D000324A001B5B25643B2564480011241FBE87
:1000E000CFEFD8E0DEBFCDBF11E0A0E0B1E0EAE79E
:1000F000F6E102C005900D92A03AB107D9F722E0CF
:10010000A0EAB1E001C01D92A33EB207E1F70E9450
:1001100087050C943B0B0C940000E8E6F0E080812E
:10012000826080838BB382608BBBECE6F0E08081E1
:100130008F6080831092A00108958091A00118160D
:1001400014F58091A1016FB7F89491E009C0F9010D
:10015000EF55FE4F4081F901E056FE4F40839F5F0F
:10016000292F30E04091A001042E000C550B2417DC
:1001700035076CF39091A00191509093A0016623F4
:100180001CF4789408958FEF08951F920F920FB684
:100190000F9211242F933F934F938F939F93EF933D
:1001A000FF9343B14F7080E026C09091A00194303E
:1001B0000CF5242F30E0082E02C0359527950A94BF
:1001C000E2F720FF17C02091A50130E0082E02C001
:1001D000359527950A94E2F720FD0CC0E091A00127
:1001E00091E09E0F9093A0010E2E000CFF0BEF5597
:1001F000FE4F80838F5F8430C0F24093A501FF9152
:10020000EF919F918F914F913F912F910F900FBE42
:100210000F901F9018950E94CD0508951F93CF93BE
:10022000DF93CDB7DEB728970FB6F894DEBF0FBEC9
:10023000CDBF0E94CD0510E02CC0E12FF0E0EE0F05
:10024000FF1FEC5EFE4F2081318130FF02C09FE036
:1002500001C090EF80E014C020FF08C0E1E0F0E0B2
:10026000EC0FFD1FE80FF11D908307C0E1E0F0E007
:10027000EC0FFD1FE80FF11D1082369527958F5F5B
:10028000883050F3BE016F5F7F4F812F0E94B00511
:100290001F5F103190F228960FB6F894DEBF0FBEA4
:1002A000CDBFDF91CF911F9108950F931F93CF93EF
:1002B000DF93CDB7DEB728970FB6F894DEBF0FBE39
:1002C000CDBF082F19E03AC0402F50E023E030E0C6
:1002D000241B350B81E090E0BC0102C0660F771F44
:1002E0002A95E2F79B0120684C5F5F4F02C0880FA0
:1002F000991F4A95E2F7282B392B216080E015C021
:1003000020FF09C0E1E0F0E0EC0FFD1FE80FF11D58
:1003100090EF908307C0E1E0F0E0EC0FFD1FE80FE5
:10032000F11D1082369527958F5F883048F3BE0106
:100330006F5F7F4F812F0E94B0051F5F1F3020F23B
:1003400028960FB6F894DEBF0FBECDBFDF91CF91D8
:100350001F910F910895883008F56031F8F441300D
:1003600061F0423061F0433061F0443061F045307B
:1003700061F0463061F443E10BC04FE009C040EF4B
:1003800007C041E005C041E103C045E301C040E0D2
:10039000962F682F8FE0891B0E94910508950F9377
:1003A0001F930E9483070091A8011091A901209139
:1003B000AA013091AB01601771078207930709F416
:1003C00042C06093A8017093A9018093AA01909301
:1003D000AB019091A70181E089278093A701882331
:1003E00021F088B1806888B903C088B18F7788B957
:1003F00082B1807882B988B18F7B88B98091A7015A
:100400008823C9F0E091C201EE230CF4ED5FE5957D
:10041000E59592B1F0E0EE5FFE4F8081892B82B9C5
:100420008091C501837019F088B1806488B988B162
:100430008F7788B908C092B180910001892B82B969
:1004400088B1806888B91F910F9108950E948D0529
:100450000E948D0040E060E07BE480E090E00E943C
:1004600037060E946B07789481B18F6781B982B19A
:10047000807882B987B1806C87B988B1806888B983
:1004800088B18F7B88B908958F929F92AF92BF9267
:10049000CF92DF92EF92FF92CF93DF930E94620799
:1004A0006AE070E08AE090E00E9451078AEB90E0F9
:1004B0009F938F930E944D086CE070E08AE090E07B
:1004C0000E94510785E990E09F938F930E944D0809
:1004D0006EE070E08AE090E00E9451078CE790E0C7
:1004E0009F938F930E944D080E940E010F900F90D2
:1004F0000F900F900F900F90D1E0C0E00F2EF6E913
:100500008F2E912CA12CB12CF02DC12CD12C760149
:100510000E948307DC01CB018C199D09AE09BF093C
:1005200088169906AA06BB06C0F58C2F0E945501B5
:100530000E9483076B017C01DD23B1F0CF5FC130E6
:1005400041F00F2EF6E98F2E912CA12CB12CF02D1D
:1005500008C00F2EF0ED8F2EF7E09F2EA12CB12CAE
:10056000F02DC330D1F416C0C150C23041F00F2E6F
:10057000F6E98F2E912CA12CB12CF02D08C00F2E56
:10058000F4EF8F2E99249394A12CB12CF02DCC2331
:1005900019F003C0D0E001C0D1E00E947E0688239C
:1005A00039F08091DD029091DE020E94F90701C0CE
:1005B0008FEF833739F0833529F00E949D008F3FFC
:1005C00009F4A6CFDF91CF91FF90EF90DF90CF900D
:1005D000BF90AF909F908F900895CF93C0E015C0CB
:1005E00042E060E08C2F0E94AB0142E064E08C2F7F
:1005F0000E94AB0142E068E08C2F0E94AB0142E018
:100600006CE08C2F0E94AB01CF5FC83048F3CF91D4
:100610000895609101016F3F49F0062E000C770BA1
:100620006F5F7F4F40E084E00E94AB018091B50195
:100630008823F1F06091C001062E000C770B6F5FEC
:100640007F4F8091C801883031F08C3031F0843098
:1006500031F043E005C045E003C046E001C044E09E
:1006600084E00E94AB018091C00180930101089554
:100670008FEF809301010895CF93DF936091A601DE
:10068000262F30E08091C501082E000C990B8217AF
:1006900093071CF4C3E0C60F07C0281739071CF4E2
:1006A000C1E0C60F01C0C0E08C2F837051F040E064
:1006B0006C2F81E00E94AB0140E06C2F82E00E9431
:1006C000AB018091C5018093A601C1E011C0D0911A
:1006D000C501DC0F8D2F837051F041E06D2F81E05B
:1006E0000E94AB0141E06D2F82E00E94AB01CF5F21
:1006F000C43068F3DF91CF910895CF930E949D009D
:10070000C82F0E947E06882339F08091DD029091E7
:10071000DE020E94F90701C08FEF9091B50191119F
:1007200066C02091C2019091C101291360C099B1A6
:100730009295969597709370913039F060F0923061
:1007400031F0933031F09FEF07C094E005C098E09E
:1007500003C09CE001C090E0CC2311F0803379F419
:10076000992309F444C09093C8011092C00181E01C
:100770008093B5011092C1010E94090338C0C130B5
:1007800011F0813379F4943091F19093C80184E0B1
:100790008093C00191E09093B5018093C1010E94C4
:1007A000090325C0C23011F0823379F49830F9F092
:1007B0009093C80188E08093C00191E09093B501C7
:1007C0008093C1010E94090312C0C33011F083332A
:1007D00071F49C3061F09093C8018CE08093C0016B
:1007E00091E09093B5018093C1010E940903CF91DC
:1007F00008954C9B03C08AEF90E0089584E690E052
:1008000008950E9462070E940B010E949D000E94B1
:1008100085060E9483076093BC017093BD0180939D
:10082000BE019093BF011092C5011092C1011092B8
:10083000C20184E391E09093C4018093C30181E0FD
:100840008093B6018FEF8093C801809301010E94CD
:100850003C030E94ED021092C5011092C1010E945A
:10086000CF010E94F9039093C7018093C6010E94B3
:1008700083070091BC011091BD012091BE01309110
:10088000BF01AB01BC01401B510B620B730B80918C
:10089000C6019091C701A0E0B0E084179507A607B4
:1008A000B70708F0C8C09091C1018091C5018917B0
:1008B0000CF040C08F5F8093C50191E09093B6012A
:1008C0002FE331E03093C4012093C301982F93703C
:1008D00009F072C08093C2018091B4018823A9F00D
:1008E0008091B0019091B101A091B201B091B3019A
:1008F0000196A11DB11D8093B0019093B101A09309
:10090000B201B093B301C1E05CC08091AC019091A1
:10091000AD01A091AE01B091AF010196A11DB11D35
:100920008093AC019093AD01A093AE01B093AF0161
:10093000C1E047C098170CF041C081508093C501B9
:1009400091E09093B60122E431E03093C40120930A
:10095000C301982F9370A1F58093C2018091B401D7
:100960008823A9F08091B0019091B101A091B201CA
:10097000B091B3010196A11DB11D8093B001909378
:10098000B101A093B201B093B301C8E01AC0809145
:10099000AC019091AD01A091AE01B091AF01019673
:1009A000A11DB11D8093AC019093AD01A093AE0148
:1009B000B093AF01C8E005C0C1E003C0C0E401C00E
:1009C000C8E08091B5018823A1F09091C501809184
:1009D000C00198130EC01092B50181E08093B4015C
:1009E0008091C8018093C1018FEF8093C8010E945C
:1009F00009038091B401882341F09091C501809151
:100A0000C101981302C01092B40180910001C8176F
:100A100031F0C093000182B18078C82BC2B90E9426
:100A20003C030E9483076093BC017093BD018093D7
:100A3000BE019093BF018091B601882309F464C080
:100A40000E9462078091C20188230CF48D5FC82F39
:100A5000C595C5956AE070E08AE090E00E94510774
:100A60001F92CF9387E491E09F938F930E94370862
:100A70006CE070E08AE090E00E9451078091C40130
:100A80008F938091C3018F9389E591E09F938F931A
:100A90000E9437086EE070E08AE090E00E94510703
:100AA0008091B3018F938091B2018F938091B101B6
:100AB0008F938091B0018F9387E691E09F938F93FE
:100AC0000E94370860E170E08AE090E00E945107E0
:100AD0008091AF018F938091AE018F938091AD0192
:100AE0008F938091AC018F9382E891E09F938F93D5
:100AF0000E9437081092B6018DB79EB744960FB684
:100B0000F8949EBF0FBE8DBF0E947D03A8CE0E94A9
:100B100026020E9444020E94010480E80E941F07EE
:100B200008951F93CF93DF938031B0F46830A0F421
:100B3000142FC62FD82F81E00E944B076C2F6770AF
:100B400080E1689F900111248D2F8F70822B0E946D
:100B50004B07812F0E944B07DF91CF911F91089582
:100B60000F931F93CF938031A0F48B01C82F83E0A4
:100B70000E944B078C2F8F700E944B07C0E007C06C
:100B8000F801EC0FF11D80810E944B07CF5FC83048
:100B9000B8F3CF911F910F9108958FE00E944B07FA
:100BA0000895CF93C82F8A3019F48DE00E94D105A3
:100BB0009FB7907802C0992329F18091CA018F3F95
:100BC000D1F3F894E091C90181E08E0F8093C901BF
:100BD000F0E0E553FE4FC0838091CA018F5F8093A0
:100BE000CA018091C9018F3F11F41092C901E1EC53
:100BF000F0E0808180628083992339F0789480E0EE
:100C000090E005C081E090E002C080E090E0CF91EC
:100C100008958091DC028823E1F32FB72078F894BF
:100C20008091CA023091DC0290E0831B91095AF452
:100C3000E091CA028091DC02F0E0E81BF109E55284
:100C4000FD4F80810AC0E091CA028091DC02F0E091
:100C5000E81BF109E553FD4F80819091DC02915032
:100C60009093DC02222309F0789490E0089510928A
:100C7000C9011092CA011092CA021092DC021092AD
:100C8000DB024093B701DC01CB01880F991FAA1F3B
:100C9000BB1F880F991FAA1FBB1F9C01AD01220F0C
:100CA000331F441F551F60E072E18AE790E00E9405
:100CB000B807BA01A9014F5F5F4F6F4F7F4FDB014C
:100CC000CA011AF40196A11DB11DB595A795979576
:100CD000879501979093C5008093C400E1ECF0E004
:100CE00088E18083808180688083EDEDF2E086E09A
:100CF00091E0938382839183808308959091DC02B5
:100D000081E0911101C080E008951092CA02109212
:100D1000DC0208951F920F920FB60F9211242F93A9
:100D20008F939F93EF93FF938091CA01882329F1BA
:100D30008091C9012091CA0190E0821B91095AF467
:100D4000E091C9018091CA01F0E0E81BF109E65386
:100D5000FD4F90810AC0E091C9018091CA01F0E085
:100D6000E81BF109E553FE4F90818091CA01815043
:100D70008093CA019093C60005C0E1ECF0E0808149
:100D80008F7D8083FF91EF919F918F912F910F9095
:100D90000FBE0F901F9018951F920F920FB60F92D3
:100DA00011242F933F934F935F936F937F938F9370
:100DB0009F93AF93BF93CF93EF93FF93C091C600E0
:100DC0008091B701882349F08091CA018F3F29F0B3
:100DD00060E070E08C2F0E94D1058091DC028031B0
:100DE00020F081E08093DB0218C0CD3009F4CAE026
:100DF000E091CA0281E08E0F8093CA02F0E0E553D1
:100E0000FD4FC0838091DC028F5F8093DC02809174
:100E1000CA02803111F41092CA02FF91EF91CF9172
:100E2000BF91AF919F918F917F916F915F914F9102
:100E30003F912F910F900FBE0F901F90189594B176
:100E4000906B94B995B1906195B990E59CBD88304F
:100E500021F0803211F0823019F491E09DBD01C083
:100E60001DBC803269F028F4883071F0803161F067
:100E70000EC0803429F0803851F48CB581608CBD6F
:100E80008CB582608CBD03C08CB581608CBD85B192
:100E90008F7E85B908958EBD0DB407FEFDCF8EB54A
:100EA00008959F938F937F936F9383ED90E09F932B
:100EB0008F930E944D080F900F900F900F900F90FE
:100EC0000F9008958EEC90E09F938F930E944D08B1
:100ED0000F900F9008951092B8011092B9011092DE
:100EE000BA011092BB0116BC8CE787BD82E084BDBD
:100EF00083E085BDEEE6F0E080818260808385B38B
:100F0000827085BB08958FB7282F2078F894609160
:100F1000B8017091B9018091BA019091BB0122236F
:100F200009F0789408951F920F920FB60F92112432
:100F30008F939F93AF93BF938091B8019091B90124
:100F4000A091BA01B091BB010196A11DB11D809382
:100F5000B8019093B901A093BA01B093BB01BF91BE
:100F6000AF919F918F910F900FBE0F901F9018958A
:100F7000052E97FB1EF400940E94CF0757FD07D063
:100F80000E94D70707FC03D04EF40C94CF0750956E
:100F90004095309521953F4F4F4F5F4F0895909565
:100FA0008095709561957F4F8F4F9F4F0895A1E277
:100FB0001A2EAA1BBB1BFD010DC0AA1FBB1FEE1FD3
:100FC000FF1FA217B307E407F50720F0A21BB30B1E
:100FD000E40BF50B661F771F881F991F1A9469F79A
:100FE00060957095809590959B01AC01BD01CF01F6
:100FF0000895CF93DF93EC012B8120FF33C026FFB0
:101000000AC02F7B2B838E819F8101969F838E83C5
:101010008A8190E029C022FF0FC0E881F981808198
:10102000082E000C990B009719F420622B831AC02C
:101030003196F983E8830EC0EA85FB85099597FF11
:1010400009C02B81019611F080E201C080E1822B62
:101050008B8308C02E813F812F5F3F4F3F832E83BC
:10106000992702C08FEF9FEFDF91CF910895A0E005
:10107000B0E0EDE3F8E00C94140BAE014B5F5F4F72
:10108000FA0161917191AF018091DF029091E002CC
:101090000E947308E2E00C94300BA0E0B0E0E3E5BE
:1010A000F8E00C94120BAE01495F5F4FDA016D91CD
:1010B0007D91AD010DED12E0F80182819381DC019B
:1010C00013962C911397286013962C930E94730803
:1010D000D8011296ED91FC9113972381277F2383EA
:1010E000E4E00C942E0BABE0B0E0E9E7F8E00C9400
:1010F000040B6C017B018A01FC011782168283813B
:1011000081FFCCC1CE0101963C01F6019381F7012C
:1011100093FD859193FF81917F01882309F4BAC1E2
:10112000853239F493FD859193FF81917F0185325A
:1011300029F4B60190E00E946A0AE7CF912C212C95
:10114000312CFFE1F315D8F08B3279F038F480328E
:1011500079F08332A1F4232D20611DC08D3261F01E
:10116000803369F4232D216016C0832D8260382ED0
:10117000E32DE4603E2E2AC0F32DF8601DC037FC3D
:101180002DC020ED280F2A3040F08E32B9F436FC05
:1011900081C1232D2064322E19C036FE06C08AE09C
:1011A000989E200D1124922E11C0EAE02E9E200D53
:1011B0001124222EF32DF0623F2E08C08C3621F42C
:1011C000832D8068382E02C0883641F4F70193FDE4
:1011D000859193FF81917F018111B3CF982F9F7DDE
:1011E0009554933028F40C5F1F4F9FE399830DC0F3
:1011F000833631F0833771F0833509F059C021C04F
:10120000F801808189830E5F1F4F88248394912C7D
:10121000530113C02801F2E04F0E511CF801A080C9
:10122000B18036FE03C0692D70E002C06FEF7FEF22
:10123000C5010E945F0A4C018201F32DFF773F2E0A
:1012400016C0280122E0420E511CF801A080B18096
:1012500036FE03C0692D70E002C06FEF7FEFC5015D
:101260000E94540A4C01F32DF0683F2E820133FC9A
:101270001BC0822D90E088169906B0F4B60180E27A
:1012800090E00E946A0A2A94F4CFF50137FC859118
:1012900037FE81915F01B60190E00E946A0A211039
:1012A0002A9421E0821A91088114910471F7E8C010
:1012B000843611F0893641F5F80137FE07C06081A8
:1012C0007181828193810C5F1F4F08C060817181A1
:1012D000072E000C880B990B0E5F1F4FF32DFF7626
:1012E0003F2E97FF09C090958095709561957F4F2F
:1012F0008F4F9F4FF0683F2E2AE030E0A3010E94FD
:10130000A60A882E861845C0853731F4232D2F7EF6
:10131000B22E2AE030E025C0932D997FB92E8F366A
:10132000C1F018F4883579F0B5C0803719F08837E6
:1013300021F0B0C0E92FE061BE2EB4FE0DC0FB2D40
:10134000F460BF2E09C034FE0AC0292F2660B22ED9
:1013500006C028E030E005C020E130E002C020E116
:1013600032E0F801B7FE07C060817181828193810C
:101370000C5F1F4F06C06081718180E090E00E5FBE
:101380001F4FA3010E94A60A882E8618FB2DFF7707
:101390003F2E36FE0DC0232D2E7FA22E891458F429
:1013A00034FE0BC032FC09C0832D8E7EA82E05C0F2
:1013B000B82CA32C03C0B82C01C0B92CA4FE0FC0BC
:1013C000FE01E80DF11D8081803321F49A2D997E74
:1013D000A92E09C0A2FE06C0B394B39404C08A2DFE
:1013E000867809F0B394A3FC11C0A0FE06C0B21425
:1013F00088F4280C922C9B180EC0B21460F4B6012D
:1014000080E290E00E946A0AB394F7CFB21418F415
:101410002B1802C0982C212CA4FE10C0B60180E32A
:1014200090E00E946A0AA2FE17C0A1FC03C088E7F0
:1014300090E002C088E590E0B6010CC08A2D867865
:1014400059F0A1FE02C08BE201C080E2A7FC8DE250
:10145000B60190E00E946A0A891438F4B60180E36C
:1014600090E00E946A0A9A94F7CF8A94F301E80DFB
:10147000F11D8081B60190E00E946A0A8110F5CFCB
:10148000222009F442CEB60180E290E00E946A0A6E
:101490002A94F6CFF6018681978102C08FEF9FEFE5
:1014A0002B96E2E10C94200BFC01059061507040FA
:1014B0000110D8F7809590958E0F9F1F0895FC011D
:1014C0006150704001900110D8F7809590958E0F73
:1014D0009F1F08950F931F93CF93DF93FB012381E9
:1014E00021FD03C08FEF9FEF2CC022FF16C0468165
:1014F0005781248135814217530744F4A081B1817B
:101500009D012F5F3F4F318320838C93268137814C
:101510002F5F3F4F3783268314C08B01EC01FB0103
:101520000084F185E02D0995892BE1F6D801169606
:101530008D919C911797019617969C938E93169771
:10154000CE01DF91CF911F910F910895FA01AA2743
:10155000283051F1203181F1E8946F936E7F6E5FF6
:101560007F4F8F4F9F4FAF4FB1E03ED0B4E03CD0A4
:10157000670F781F891F9A1FA11D680F791F8A1F87
:10158000911DA11D6A0F711D811D911DA11D20D0EE
:1015900009F468943F912AE0269F11243019305DA8
:1015A0003193DEF6CF010895462F4770405D419399
:1015B000B3E00FD0C9F7F6CF462F4F70405D4A33E6
:1015C00018F0495D31FD4052419302D0A9F7EACFAE
:1015D000B4E0A6959795879577956795BA95C9F7DD
:1015E00000976105710508959B01AC010A2E0694D0
:1015F0005795479537952795BA95C9F7620F731F89
:10160000841F951FA01D08952F923F924F925F92C5
:101610006F927F928F929F92AF92BF92CF92DF9202
:10162000EF92FF920F931F93CF93DF93CDB7DEB767
:10163000CA1BDB0B0FB6F894DEBF0FBECDBF0994FB
:101640002A88398848885F846E847D848C849B8452
:10165000AA84B984C884DF80EE80FD800C811B8160
:10166000AA81B981CE0FD11D0FB6F894DEBF0FBE8F
:0A167000CDBFED010895F894FFCFFF
:10167A0040FF3F065B4F0000000300000000D10559
:10168A0009060000E7012101E7012101E701000144
:10169A00FF00C300FF0081008100810081008100FA
:1016AA008100FF0053746174696F6E61727900552D
:1016BA007000446F776E0043757272656E74204CC9
:1016CA006576656C3A2025640044697265637469BD
:1016DA006F6E3A20257300466C6F6F7273207769BC
:1016EA0074682074726176656C6C65723A20256C38
:1016FA007500466C6F6F727320776974686F7574C2
:10170A002074726176656C6C65723A20256C75007E
:00000001FF
