S013000043535345323031305F41322E737265634E
S11300000C946E000C948B000C948B000C948B005D
S11300100C948B000C94C5000C948B000C948B00F6
S11300200C948B000C948B000C948B000C948B0020
S11300300C948B000C948B000C948B000C948B0010
S11300400C94E8050C948B000C948B000C948B009E
S11300500C9421050C94DF040C948B000C948B00FD
S11300600C948B000C948B000C948B000C948B00E0
S11300700C948B000C948B000C948B00537475645B
S1130080656E74204E756D6265723A20343838346A
S11300903034363800435353453230313020707297
S11300A06F6A656374206279204C6163686C616E69
S11300B020486F6C6C6964617900456C6576617485
S11300C06F7220436F6E74726F6C6C6572001B5B91
S11300D0324A001B5B25643B2564480011241FBE83
S11300E0CFEFD8E0DEBFCDBF11E0A0E0B1E0E4E2A5
S11300F0F3E102C005900D92A237B107D9F722E0CF
S1130100A2E7B1E001C01D92A23AB207E1F70E9452
S1130110DC030C9490090C940000E8E6F0E0808184
S1130120826080838BB382608BBBECE6F0E08081DD
S11301308F60808310927201089580917201181665
S113014014F5809173016FB7F89491E009C0F90137
S1130150ED58FE4F4081F901EE58FE4F40839F5FFA
S1130160292F30E040917201042E000C550B241706
S113017035076CF39091720191509093720166234C
S11301801CF4789408958FEF08951F920F920FB680
S11301900F9211242F933F934F938F939F93EF9339
S11301A0FF9343B14F7080E026C090917201943068
S11301B00CF5242F30E0082E02C0359527950A94BB
S11301C0E2F720FF17C02091770130E0082E02C02B
S11301D0359527950A94E2F720FD0CC0E091720151
S11301E091E09E0F909372010E2E000CFF0BED58C0
S11301F0FE4F80838F5F8430C0F240937701FF917C
S1130200EF919F918F914F913F912F910F900FBE3E
S11302100F901F9018950E94220408951F93CF9366
S1130220DF93CDB7DEB728970FB6F894DEBF0FBEC5
S1130230CDBF0E94220410E02CC0E12FF0E0EE0FAD
S1130240FF1FE25FFE4F2081318130FF02C09FE03B
S113025001C090EF80E014C020FF08C0E1E0F0E0AE
S1130260EC0FFD1FE80FF11D908307C0E1E0F0E003
S1130270EC0FFD1FE80FF11D1082369527958F5F57
S1130280883050F3BE016F5F7F4F812F0E940504B9
S11302901F5F103190F228960FB6F894DEBF0FBEA0
S11302A0CDBFDF91CF911F9108950F931F93CF93EB
S11302B0DF93CDB7DEB728970FB6F894DEBF0FBE35
S11302C0CDBF082F19E03AC0402F50E023E030E0C2
S11302D0241B350B81E090E0BC0102C0660F771F40
S11302E02A95E2F79B0120684C5F5F4F02C0880F9C
S11302F0991F4A95E2F7282B392B216080E015C01D
S113030020FF09C0E1E0F0E0EC0FFD1FE80FF11D54
S113031090EF908307C0E1E0F0E0EC0FFD1FE80FE1
S1130320F11D1082369527958F5F883048F3BE0102
S11303306F5F7F4F812F0E9405041F5F1F3020F2E3
S113034028960FB6F894DEBF0FBECDBFDF91CF91D4
S11303501F910F910895883008F56031F8F4413009
S113036061F0423061F0433061F0443061F0453077
S113037061F0463061F443E10BC04FE009C040EF47
S113038007C041E005C041E103C045E301C040E0CE
S1130390962F682F8FE0891B0E94E60308950E9420
S11303A0E2030E948D0040E060E07BE480E090E0A6
S11303B00E948C040E94C005789408958F929F92A5
S11303C0AF92BF92CF92DF92EF92FF92CF93DF93DF
S11303D00E94B7056AE070E08AE090E00E94A605FA
S11303E08AEB90E09F938F930E94A2066CE070E0EA
S11303F08AE090E00E94A60585E990E09F938F93A0
S11304000E94A2066EE070E08AE090E00E94A605D9
S11304108CE790E09F938F930E94A2060E940E01A6
S11304200F900F900F900F900F900F90D1E0C0E0BD
S11304300F2EF6E98F2E912CA12CB12CF02DC12C6E
S1130440D12C76010E94D805DC01CB018C199D09C1
S1130450AE09BF0988169906AA06BB06C0F58C2FFB
S11304600E9455010E94D8056B017C01DD23B1F087
S1130470CF5FC13041F00F2EF6E98F2E912CA12CC5
S1130480B12CF02D08C00F2EF0ED8F2EF7E09F2E2B
S1130490A12CB12CF02DC330D1F416C0C150C23000
S11304A041F00F2EF6E98F2E912CA12CB12CF02DBA
S11304B008C00F2EF4EF8F2E99249394A12CB12C05
S11304C0F02DCC2319F003C0D0E001C0D1E00E948C
S11304D0D304882339F080919C0290919D020E945C
S11304E04E0601C08FEF833739F0833529F00E941F
S11304F09D008F3F09F4A6CFDF91CF91FF90EF903D
S1130500DF90CF90BF90AF909F908F900895CF933E
S1130510C0E015C042E060E08C2F0E94AB0142E0D5
S113052064E08C2F0E94AB0142E068E08C2F0E94B3
S1130530AB0142E06CE08C2F0E94AB01CF5FC8306E
S113054048F3CF910895CF93DF9360917801262FDC
S113055030E080918701082E000C990B82179307D5
S11305601CF4C3E0C60F07C0281739071CF4C1E008
S1130570C60F01C0C0E08C2F837051F040E06C2F97
S113058081E00E94AB0140E06C2F82E00E94AB014D
S11305908091870180937801C1E011C0D0918701D7
S11305A0DC0F8D2F837051F041E06D2F81E00E94AC
S11305B0AB0141E06D2F82E00E94AB01CF5FC430FC
S11305C068F3DF91CF9108950E949D00811103C0CB
S11305D01092830111C0813021F484E0809383015F
S11305E00BC0823021F488E08093830105C08330FE
S11305F019F48CE0809383010E94D304882339F09A
S113060080919C0290919D020E944E0601C08FEF42
S1130610803319F4109283010895813321F484E026
S1130620809383010895823321F488E080938301C9
S11306300895833319F48CE08093830108950E9414
S1130640B7050E940B010E949D000E94DA040E94DB
S1130650D80560937F01709380018093810190930A
S113066082011092870110928301109284018EE21C
S113067091E0909386018093850181E080937901D4
S11306800E94A3020E9487021092870110928301A4
S11306900E94D80500917F01109180012091810171
S11306A030918201DC01CB01801B910BA20BB30BB7
S11306B0893C9105A105B10508F443C02091870147
S11306C080918301082E000C990B821B910927FD50
S11306D09395181619066CF42F5F2093870181E017
S11306E08093790189E391E0909386018093850159
S11306F015C099236CF421502093870181E08093E5
S113070079018CE391E0909386018093850106C082
S11307108EE291E090938601809385018091870118
S1130720982F937011F4809384010E94A3020E9475
S1130730D80560937F017093800180938101909329
S11307408201809179018823A1F10E94B7058091EB
S1130750840188230CF48D5F182F159515956AE094
S113076070E08AE090E00E94A6051F921F9381E446
S113077091E09F938F930E948C066CE070E08AE076
S113078090E00E94A605809186018F938091850157
S11307908F9383E591E09F938F930E948C06109230
S11307A079018DB79EB708960FB6F8949EBF0FBE19
S11307B08DBF0E94E4026CCF0E94CF010E94DE0133
S11307C00E941F0380E80E94740508951F93CF932D
S11307D0DF938031B0F46830A0F4142FC62FD82FE3
S11307E081E00E94A0056C2F677080E1689F9001F2
S11307F011248D2F8F70822B0E94A005812F0E94BF
S1130800A005DF91CF911F9108950F931F93CF936C
S11308108031A0F48B01C82F83E00E94A0058C2FA7
S11308208F700E94A005C0E007C0F801EC0FF11D15
S113083080810E94A005CF5FC830B8F3CF911F918B
S11308400F9108958FE00E94A0050895CF93C82FBB
S11308508A3019F48DE00E9426049FB7907802C074
S1130860992329F1809189018F3FD1F3F894E09184
S1130870880181E08E0F80938801F0E0E657FE4FF7
S1130880C083809189018F5F809389018091880161
S11308908F3F11F410928801E1ECF0E080818062D6
S11308A08083992339F0789480E090E005C081E05A
S11308B090E002C080E090E0CF91089580919B0287
S11308C08823E1F32FB72078F8948091890230913E
S11308D09B0290E0831B91095AF4E0918902809174
S11308E09B02F0E0E81BF109E656FD4F80810AC047
S11308F0E091890280919B02F0E0E81BF109E65740
S1130900FD4F808190919B02915090939B022223F2
S113091009F0789490E0089510928801109289016A
S11309201092890210929B0210929A0240937A01CB
S1130930DC01CB01880F991FAA1FBB1F880F991FC9
S1130940AA1FBB1F9C01AD01220F331F441F551F5B
S113095060E072E18AE790E00E940D06BA01A90105
S11309604F5F5F4F6F4F7F4FDB01CA011AF401964F
S1130970A11DB11DB595A79597958795019790935E
S1130980C5008093C400E1ECF0E088E180838081BD
S113099080688083ECE9F2E080E091E093838283D5
S11309A091838083089590919B0281E0911101C00D
S11309B080E008951092890210929B0208951F927C
S11309C00F920FB60F9211242F938F939F93EF934F
S11309D0FF9380918901882329F1809188012091D6
S11309E0890190E0821B91095AF4E0918801809179
S11309F08901F0E0E81BF109E757FD4F90810AC037
S1130A00E091880180918901F0E0E81BF109E65743
S1130A10FE4F908180918901815080938901909348
S1130A20C60005C0E1ECF0E080818F7D8083FF91FA
S1130A30EF919F918F912F910F900FBE0F901F9068
S1130A4018951F920F920FB60F9211242F933F9374
S1130A504F935F936F937F938F939F93AF93BF93C2
S1130A60CF93EF93FF93C091C60080917A018823BE
S1130A7049F0809189018F3F29F060E070E08C2F6C
S1130A800E94260480919B02803120F081E08093B3
S1130A909A0218C0CD3009F4CAE0E091890281E0DD
S1130AA08E0F80938902F0E0E657FD4FC08380915A
S1130AB09B028F5F80939B0280918902803111F4A5
S1130AC010928902FF91EF91CF91BF91AF919F91C5
S1130AD08F917F916F915F914F913F912F910F90E3
S1130AE00FBE0F901F90189594B1906B94B995B167
S1130AF0906195B990E59CBD883021F0803211F069
S1130B00823019F491E09DBD01C01DBC803269F0B2
S1130B1028F4883071F0803161F00EC0803429F0FF
S1130B20803851F48CB581608CBD8CB582608CBDED
S1130B3003C08CB581608CBD85B18F7E85B9089565
S1130B408EBD0DB407FEFDCF8EB508959F938F9390
S1130B507F936F9383ED90E09F938F930E94A206FF
S1130B600F900F900F900F900F900F9008958EECB0
S1130B7090E09F938F930E94A2060F900F90089588
S1130B8010927B0110927C0110927D0110927E01E3
S1130B9016BC8CE787BD82E084BD83E085BDEEE6AC
S1130BA0F0E080818260808385B3827085BB089584
S1130BB08FB7282F2078F89460917B0170917C0185
S1130BC080917D0190917E01222309F0789408950B
S1130BD01F920F920FB60F9211248F939F93AF938E
S1130BE0BF9380917B0190917C01A0917D01B09194
S1130BF07E010196A11DB11D80937B0190937C0120
S1130C00A0937D01B0937E01BF91AF919F918F918D
S1130C100F900FBE0F901F901895052E97FB1EF492
S1130C2000940E94240657FD07D00E942C0607FC5E
S1130C3003D04EF40C94240650954095309521959C
S1130C403F4F4F4F5F4F08959095809570956195F4
S1130C507F4F8F4F9F4F0895A1E21A2EAA1BBB1BF3
S1130C60FD010DC0AA1FBB1FEE1FFF1FA217B30774
S1130C70E407F50720F0A21BB30BE40BF50B661F8A
S1130C80771F881F991F1A9469F76095709580954E
S1130C9090959B01AC01BD01CF010895CF93DF93E3
S1130CA0EC012B8120FF33C026FF0AC02F7B2B834E
S1130CB08E819F8101969F838E838A8190E029C0D3
S1130CC022FF0FC0E881F9818081082E000C990B66
S1130CD0009719F420622B831AC03196F983E883B4
S1130CE00EC0EA85FB85099597FF09C02B81019603
S1130CF011F080E201C080E1822B8B8308C02E8139
S1130D003F812F5F3F4F3F832E83992702C08FEF90
S1130D109FEFDF91CF910895A0E0B0E0E2E9F6E023
S1130D200C946909AE014B5F5F4FFA0161917191B7
S1130D30AF0180919E0290919F020E94C806E2E05A
S1130D400C948509A0E0B0E0E8EAF6E00C946709A9
S1130D50AE01495F5F4FDA016D917D91AD010CE900
S1130D6012E0F80182819381DC0113962C91139790
S1130D70286013962C930E94C806D8011296ED9110
S1130D80FC9113972381277F2383E4E00C94830948
S1130D90ABE0B0E0EEECF6E00C9459096C017B0199
S1130DA08A01FC0117821682838181FFCCC1CE01A6
S1130DB001963C01F6019381F70193FD859193FF20
S1130DC081917F01882309F4BAC1853239F493FDF6
S1130DD0859193FF81917F01853229F4B60190E0DA
S1130DE00E94BF08E7CF912C212C312CFFE1F31591
S1130DF0D8F08B3279F038F4803279F08332A1F470
S1130E00232D20611DC08D3261F0803369F4232DC0
S1130E10216016C0832D8260382EE32DE4603E2EBF
S1130E202AC0F32DF8601DC037FC2DC020ED280F1B
S1130E302A3040F08E32B9F436FC81C1232D20646F
S1130E40322E19C036FE06C08AE0989E200D112469
S1130E50922E11C0EAE02E9E200D1124222EF32D95
S1130E60F0623F2E08C08C3621F4832D8068382E22
S1130E7002C0883641F4F70193FD859193FF819177
S1130E807F018111B3CF982F9F7D9554933028F41F
S1130E900C5F1F4F9FE399830DC0833631F0833776
S1130EA071F0833509F059C021C0F801808189832C
S1130EB00E5F1F4F88248394912C530113C0280183
S1130EC0F2E04F0E511CF801A080B18036FE03C041
S1130ED0692D70E002C06FEF7FEFC5010E94B40876
S1130EE04C018201F32DFF773F2E16C0280122E02A
S1130EF0420E511CF801A080B18036FE03C0692D5A
S1130F0070E002C06FEF7FEFC5010E94A9084C0199
S1130F10F32DF0683F2E820133FC1BC0822D90E03C
S1130F2088169906B0F4B60180E290E00E94BF08EA
S1130F302A94F4CFF50137FC859137FE81915F0146
S1130F40B60190E00E94BF0821102A9421E0821A81
S1130F5091088114910471F7E8C0843611F0893640
S1130F6041F5F80137FE07C0608171818281938168
S1130F700C5F1F4F08C060817181072E000C880B25
S1130F80990B0E5F1F4FF32DFF763F2E97FF09C07D
S1130F9090958095709561957F4F8F4F9F4FF06826
S1130FA03F2E2AE030E0A3010E94FB08882E861819
S1130FB045C0853731F4232D2F7EB22E2AE030E050
S1130FC025C0932D997FB92E8F36C1F018F488353A
S1130FD079F0B5C0803719F0883721F0B0C0E92F17
S1130FE0E061BE2EB4FE0DC0FB2DF460BF2E09C01F
S1130FF034FE0AC0292F2660B22E06C028E030E055
S113100005C020E130E002C020E132E0F801B7FE83
S113101007C060817181828193810C5F1F4F06C07C
S11310206081718180E090E00E5F1F4FA3010E94F8
S1131030FB08882E8618FB2DFF773F2E36FE0DC049
S1131040232D2E7FA22E891458F434FE0BC032FCBB
S113105009C0832D8E7EA82E05C0B82CA32C03C0F6
S1131060B82C01C0B92CA4FE0FC0FE01E80DF11D7F
S11310708081803321F49A2D997EA92E09C0A2FE85
S113108006C0B394B39404C08A2D867809F0B3944F
S1131090A3FC11C0A0FE06C0B21488F4280C922C44
S11310A09B180EC0B21460F4B60180E290E00E9476
S11310B0BF08B394F7CFB21418F42B1802C0982CBD
S11310C0212CA4FE10C0B60180E390E00E94BF086A
S11310D0A2FE17C0A1FC03C088E790E002C088E527
S11310E090E0B6010CC08A2D867859F0A1FE02C0AA
S11310F08BE201C080E2A7FC8DE2B60190E00E9481
S1131100BF08891438F4B60180E390E00E94BF0858
S11311109A94F7CF8A94F301E80DF11D8081B6010A
S113112090E00E94BF088110F5CF222009F442CE3E
S1131130B60180E290E00E94BF082A94F6CFF6013F
S11311408681978102C08FEF9FEF2B96E2E10C948A
S11311507509FC010590615070400110D8F7809525
S113116090958E0F9F1F0895FC016150704001906F
S11311700110D8F7809590958E0F9F1F08950F93B7
S11311801F93CF93DF93FB01238121FD03C08FEFD6
S11311909FEF2CC022FF16C04681578124813581E0
S11311A04217530744F4A081B1819D012F5F3F4F43
S11311B0318320838C93268137812F5F3F4F378380
S11311C0268314C08B01EC01FB010084F185E02D22
S11311D00995892BE1F6D80116968D919C91179764
S11311E0019617969C938E931697CE01DF91CF911B
S11311F01F910F910895FA01AA27283051F1203147
S113120081F1E8946F936E7F6E5F7F4F8F4F9F4F96
S1131210AF4FB1E03ED0B4E03CD0670F781F891FD8
S11312209A1FA11D680F791F8A1F911DA11D6A0FA6
S1131230711D811D911DA11D20D009F468943F9159
S11312402AE0269F11243019305D3193DEF6CF0158
S11312500895462F4770405D4193B3E00FD0C9F71E
S1131260F6CF462F4F70405D4A3318F0495D31FD8B
S11312704052419302D0A9F7EACFB4E0A6959795DE
S1131280879577956795BA95C9F7009761057105B4
S113129008959B01AC010A2E0694579547953795FE
S11312A02795BA95C9F7620F731F841F951FA01D58
S11312B008952F923F924F925F926F927F928F92F6
S11312C09F92AF92BF92CF92DF92EF92FF920F93D1
S11312D01F93CF93DF93CDB7DEB7CA1BDB0B0FB6DB
S11312E0F894DEBF0FBECDBF09942A883988488898
S11312F05F846E847D848C849B84AA84B984C8842E
S1131300DF80EE80FD800C811B81AA81B981CE0F24
S1131310D11D0FB6F894DEBF0FBECDBFED01089509
S1071320F894FFCF6B
S1131324000000030000000026045E040000E7013E
S11313342101E7012101E7010001FF00C300FF00CF
S1131344810081008100810081008100FF005374C9
S11313546174696F6E61727900557000446F776EC1
S11313640043757272656E74204C6576656C3A2020
S1131374256400446972656374696F6E3A20257349
S1131384003000310032003300556E6B6E6F776E9F
S1051394000053
S9030000FC
