S013000043535345323031305F41322E737265634E
S11300000C946E000C948B000C948B000C948B005D
S11300100C948B000C94C5000C948B000C948B00F6
S11300200C948B000C948B000C948B000C948B0020
S11300300C948B000C948B000C948B000C948B0010
S11300400C9476080C948B000C948B000C948B000D
S11300500C94AF070C946D070C948B000C948B00DC
S11300600C948B000C948B000C948B000C948B00E0
S11300700C948B000C948B000C948B00537475645B
S1130080656E74204E756D6265723A20343838346A
S11300903034363800435353453230313020707297
S11300A06F6A656374206279204C6163686C616E69
S11300B020486F6C6C6964617900456C6576617485
S11300C06F7220436F6E74726F6C6C6572001B5B91
S11300D0324A001B5B25643B2564480011241FBE83
S11300E0CFEFD8E0DEBFCDBF11E0A0E0B1E0E4E7A0
S11300F0F8E102C005900D92A03AB107D9F722E0C9
S1130100A0EAB1E001C01D92A83EB207E1F70E9447
S11301106A060C94380C0C940000E8E6F0E0808148
S1130120826080838BB382608BBBECE6F0E08081DD
S11301308F6080831092A00108958091A001181609
S113014014F58091A1016FB7F89491E009C0F90109
S1130150EF55FE4F4081F901E056FE4F40839F5F0B
S1130160292F30E04091A001042E000C550B2417D8
S113017035076CF39091A00191509093A0016623F0
S11301801CF4789408958FEF08951F920F920FB680
S11301900F9211242F933F934F938F939F93EF9339
S11301A0FF9343B14F7080E026C09091A00194303A
S11301B00CF5242F30E0082E02C0359527950A94BB
S11301C0E2F720FF17C02091A50130E0082E02C0FD
S11301D0359527950A94E2F720FD0CC0E091A00123
S11301E091E09E0F9093A0010E2E000CFF0BEF5593
S11301F0FE4F80838F5F8430C0F24093A501FF914E
S1130200EF919F918F914F913F912F910F900FBE3E
S11302100F901F9018950E94B00608951F93CF93D6
S1130220DF93CDB7DEB728970FB6F894DEBF0FBEC5
S1130230CDBF0E94B00610E02CC0E12FF0E0EE0F1D
S1130240FF1FEC5EFE4F2081318130FF02C09FE032
S113025001C090EF80E014C020FF08C0E1E0F0E0AE
S1130260EC0FFD1FE80FF11D908307C0E1E0F0E003
S1130270EC0FFD1FE80FF11D1082369527958F5F57
S1130280883050F3BE016F5F7F4F812F0E94930629
S11302901F5F103190F228960FB6F894DEBF0FBEA0
S11302A0CDBFDF91CF911F9108950F931F93CF93EB
S11302B0DF93CDB7DEB728970FB6F894DEBF0FBE35
S11302C0CDBF082F19E03AC0402F50E023E030E0C2
S11302D0241B350B81E090E0BC0102C0660F771F40
S11302E02A95E2F79B0120684C5F5F4F02C0880F9C
S11302F0991F4A95E2F7282B392B216080E015C01D
S113030020FF09C0E1E0F0E0EC0FFD1FE80FF11D54
S113031090EF908307C0E1E0F0E0EC0FFD1FE80FE1
S1130320F11D1082369527958F5F883048F3BE0102
S11303306F5F7F4F812F0E9493061F5F1F3020F253
S113034028960FB6F894DEBF0FBECDBFDF91CF91D4
S11303501F910F910895883008F56031F8F4413009
S113036061F0423061F0433061F0443061F0453077
S113037061F0463061F443E10BC04FE009C040EF47
S113038007C041E005C041E103C045E301C040E0CE
S1130390962F682F8FE0891B0E9474060895CF92D0
S11303A0DF92EF92FF92CF93DF93EB016C01E12C8C
S11303B0F12CD701C601880F991FAA1FBB1F880FF4
S11303C0991FAA1FBB1F9C01AD01220F331F441F9D
S11303D0551F220F331F441F551F60E072E18AE747
S11303E090E00E949B0821503109309389002093AA
S11303F088001092850010928400109280008AE098
S113040080938100DE01A70196010E94DC08660F3B
S1130410771F881F991F28EE33E040E050E00E94C8
S11304209B0809C0B19BFECF82E086BB8BB180588C
S11304308BB9A701960169017A0181E0C81AD10834
S1130440E108F108232B242B252B61F7109281005E
S11304508BB18F778BB9DF91CF91FF90EF90DF90C5
S1130460CF9008950F931F930E9466080091A801EE
S11304701091A9012091AA013091AB016017710775
S11304808207930709F442C06093A8017093A901FD
S11304908093AA019093AB019091A70181E08927F1
S11304A08093A701882321F08BB184608BB903C0AA
S11304B08BB18B7F8BB982B1807882B98BB1877F06
S11304C08BB98091A7018823C9F0E091C701EE237D
S11304D00CF4ED5FE595E59592B1F0E0EE5FFE4F2B
S11304E08081892B82B98091CA01837019F08BB104
S11304F088608BB98BB18B7F8BB908C092B1809126
S11305000001892B82B98BB184608BB91F910F9143
S1130510089581E08093B0010E9466086093AC0165
S11305207093AD018093AE019093AF0108950F9342
S11305301F938091B0018823A9F10E94660800915D
S1130540AC011091AD012091AE013091AF01DC01FD
S1130550CB01801B910BA20BB30B28B12F7028B9D0
S1130560803921E09207A105B10520F488B18066A5
S113057088B918C0803223E09207A105B10520F4A0
S113058088B1806988B90EC0803B9440A105B1054B
S113059020F488B1806688B905C01092B00188B192
S11305A0806688B91F910F9108950E9470060E9479
S11305B08D0040E060E07BE480E090E00E941A0758
S11305C00E944E08789481B18F6781B982B1807896
S11305D082B98AB18C608AB98BB184608BB98BB1D2
S11305E0877F8BB98AB180688AB987B1806F87B9F0
S11305F088B18F7088B908958F929F92AF92BF92FD
S1130600CF92DF92EF92FF92CF93DF930E9445083F
S11306106AE070E08AE090E00E9434088AEB90E09F
S11306209F938F930E944A096CE070E08AE090E007
S11306300E94340885E990E09F938F930E944A09B1
S11306406EE070E08AE090E00E9434088CE790E06D
S11306509F938F930E944A090E940E010F900F905E
S11306600F900F900F900F90D1E0C0E00F2EF6E99D
S11306708F2E912CA12CB12CF02DC12CD12C7601D4
S11306800E946608DC01CB018C199D09AE09BF09E3
S113069088169906AA06BB06C0F58C2F0E94550140
S11306A00E9466086B017C01DD23B1F0CF5FC1308D
S11306B041F00F2EF6E98F2E912CA12CB12CF02DA8
S11306C008C00F2EF0ED8F2EF7E09F2EA12CB12C39
S11306D0F02DC330D1F416C0C150C23041F00F2EFA
S11306E0F6E98F2E912CA12CB12CF02D08C00F2EE1
S11306F0F4EF8F2E99249394A12CB12CF02DCC23BC
S113070019F003C0D0E001C0D1E00E946107882342
S113071039F08091E2029091E3020E94F60801C050
S11307208FEF833739F0833529F00E949D008F3F86
S113073009F4A6CFDF91CF91FF90EF90DF90CF9097
S1130740BF90AF909F908F900895CF93C0E015C055
S113075042E060E08C2F0E94AB0142E064E08C2F09
S11307600E94AB0142E068E08C2F0E94AB0142E0A2
S11307706CE08C2F0E94AB01CF5FC83048F3CF915F
S11307800895609101016F3F49F0062E000C770B2C
S11307906F5F7F4F40E084E00E94AB018091BA011B
S11307A08823F1F06091C501062E000C770B6F5F72
S11307B07F4F8091CD01883031F08C3031F084301E
S11307C031F043E005C045E003C046E001C044E029
S11307D084E00E94AB018091C501809301010895DA
S11307E08FEF809301010895CF93DF936091A60169
S11307F0262F30E08091CA01082E000C990B821735
S113080093071CF4C3E0C60F07C0281739071CF46C
S1130810C1E0C60F01C0C0E08C2F837051F040E0EE
S11308206C2F81E00E94AB0140E06C2F82E00E94BB
S1130830AB018091CA018093A601C1E011C0D0919F
S1130840CA01DC0F8D2F837051F041E06D2F81E0E0
S11308500E94AB0141E06D2F82E00E94AB01CF5FAB
S1130860C43068F3DF91CF910895CF930E949D0027
S1130870C82F0E946107882339F08091E202909189
S1130880E3020E94F60801C08FEF9091BA01911122
S11308907FC02091C7019091C601291379C099B1F5
S11308A09295969597709370913039F060F09230EC
S11308B031F0933031F09FEF07C094E005C098E029
S11308C003C09CE001C090E0CC2311F08033A9F474
S11308D0992309F45DC09093CD011092C50181E084
S11308E08093BA011092C6010E94C10362E370E0D2
S11308F088EB9BE00E94CF014BC0C13011F08133E3
S1130900B1F4943009F444C09093CD0184E0809311
S1130910C50191E09093BA018093C6010E94C1037E
S113092062E370E088EB9BE00E94CF0131C0C230EB
S113093011F08233A9F4983059F19093CD0188E0F5
S11309408093C50191E09093BA018093C6010E94FF
S1130950C10362E370E088EB9BE00E94CF0118C002
S1130960C33011F08333A1F49C3091F09093CD0106
S11309708CE08093C50191E09093BA018093C60105
S11309800E94C10362E370E088EB9BE00E94CF0108
S1130990CF9108954C9B03C08AEF90E0089584E6BC
S11309A090E008950E9445080E940B010E949D005A
S11309B00E9468070E9466086093C1017093C20197
S11309C08093C3019093C4011092CA011092C6018E
S11309D01092C70184E391E09093C9018093C80108
S11309E081E08093BB018FEF8093CD01809301015F
S11309F00E94F4030E94A5031092CA011092C6013A
S1130A000E9432020E9497020E94CA049093CC0171
S1130A108093CB010E9466080091C1011091C2012C
S1130A202091C3013091C401AB01BC01401B510BA7
S1130A30620B730B8091CB019091CC01A0E0B0E0EC
S1130A4084179507A607B70708F0D8C09091C60188
S1130A508091CA0189170CF040C08F5F8093CA014E
S1130A6091E09093BB012FE331E03093C9012093CF
S1130A70C801982F937009F072C08093C7018091C8
S1130A80B9018823A9F08091B5019091B601A09194
S1130A90B701B091B8010196A11DB11D8093B501B4
S1130AA09093B601A093B701B093B801C1E05CC0C4
S1130AB08091B1019091B201A091B301B091B401C0
S1130AC00196A11DB11D8093B1019093B201A09331
S1130AD0B301B093B401C1E047C098170CF041C012
S1130AE081508093CA0191E09093BB0122E431E0EC
S1130AF03093C9012093C801982F9370A1F5809376
S1130B00C7018091B9018823A9F08091B501909122
S1130B10B601A091B701B091B8010196A11DB11D14
S1130B208093B5019093B601A093B701B093B80137
S1130B30C8E01AC08091B1019091B201A091B301B3
S1130B40B091B4010196A11DB11D8093B1019093A0
S1130B50B201A093B301B093B401C8E005C0C1E0F1
S1130B6003C0C0E401C0C8E08091BA018823E1F069
S1130B709091CA018091C501981316C01092BA01D0
S1130B8081E08093B9018091CD018093C6018FEFFC
S1130B908093CD010E94C10364E670E084EF91E08C
S1130BA00E94CF010E9489028091B901882381F0BB
S1130BB09091CA018091C60198130AC01092B9019C
S1130BC064E670E084EF91E00E94CF010E94890204
S1130BD080910001C81731F0C093000182B1807880
S1130BE0C82BC2B90E94F4030E9466086093C10135
S1130BF07093C2018093C3019093C4018091BB019F
S1130C00882309F464C00E9445088091C7018823A1
S1130C100CF48D5FC82FC595C5956AE070E08AE035
S1130C2090E00E9434081F92CF9387E491E09F9351
S1130C308F930E9434096CE070E08AE090E00E9497
S1130C4034088091C9018F938091C8018F9389E5FD
S1130C5091E09F938F930E9434096EE070E08AE0E4
S1130C6090E00E9434088091B8018F938091B7017D
S1130C708F938091B6018F938091B5018F9387E60E
S1130C8091E09F938F930E94340960E170E08AE0C1
S1130C9090E00E9434088091B4018F938091B30155
S1130CA08F938091B2018F938091B1018F9382E8E9
S1130CB091E09F938F930E9434091092BB018DB7EA
S1130CC09EB744960FB6F8949EBF0FBE8DBF0E9488
S1130CD0350496CE0E94D5020E94FC020E94D204E2
S1130CE080E80E94020808951F93CF93DF93803118
S1130CF0B0F46830A0F4142FC62FD82F81E00E94DE
S1130D002E086C2F677080E1689F900111248D2F4D
S1130D108F70822B0E942E08812F0E942E08DF9153
S1130D20CF911F9108950F931F93CF938031A0F417
S1130D308B01C82F83E00E942E088C2F8F700E9495
S1130D402E08C0E007C0F801EC0FF11D80810E945D
S1130D502E08CF5FC830B8F3CF911F910F9108953B
S1130D608FE00E942E080895CF93C82F8A3019F47B
S1130D708DE00E94B4069FB7907802C0992329F1B0
S1130D808091CF018F3FD1F3F894E091CE0181E0BF
S1130D908E0F8093CE01F0E0E053FE4FC08380912C
S1130DA0CF018F5F8093CF018091CE018F3F11F4EB
S1130DB01092CE01E1ECF0E080818062808399237F
S1130DC039F0789480E090E005C081E090E002C0C2
S1130DD080E090E0CF9108958091E1028823E1F3CF
S1130DE02FB72078F8948091CF023091E10290E0FF
S1130DF0831B91095AF4E091CF028091E102F0E063
S1130E00E81BF109E052FD4F80810AC0E091CF0256
S1130E108091E102F0E0E81BF109E053FD4F80818D
S1130E209091E10291509093E102222309F0789489
S1130E3090E008951092CE011092CF011092CF024B
S1130E401092E1021092E0024093BC01DC01CB015C
S1130E50880F991FAA1FBB1F880F991FAA1FBB1FAA
S1130E609C01AD01220F331F441F551F60E072E146
S1130E708AE790E00E94BD08BA01A9014F5F5F4F65
S1130E806F4F7F4FDB01CA011AF40196A11DB11DFA
S1130E90B595A7959795879501979093C5008093ED
S1130EA0C400E1ECF0E088E1808380818068808385
S1130EB0E2EEF2E086E091E0938382839183808383
S1130EC008959091E10281E0911101C080E00895BC
S1130ED01092CF021092E10208951F920F920FB662
S1130EE00F9211242F938F939F93EF93FF938091ED
S1130EF0CF01882329F18091CE012091CF0190E088
S1130F00821B91095AF4E091CE018091CF01F0E067
S1130F10E81BF109E153FD4F90810AC0E091CE0135
S1130F208091CF01F0E0E81BF109E053FE4F90817E
S1130F308091CF0181508093CF019093C60005C06A
S1130F40E1ECF0E080818F7D8083FF91EF919F91B0
S1130F508F912F910F900FBE0F901F9018951F9295
S1130F600F920FB60F9211242F933F934F935F93D9
S1130F706F937F938F939F93AF93BF93CF93EF938D
S1130F80FF93C091C6008091BC01882349F08091F1
S1130F90CF018F3F29F060E070E08C2F0E94B406EF
S1130FA08091E102803120F081E08093E00218C05A
S1130FB0CD3009F4CAE0E091CF0281E08E0F809336
S1130FC0CF02F0E0E053FD4FC0838091E1028F5FD8
S1130FD08093E1028091CF02803111F41092CF020C
S1130FE0FF91EF91CF91BF91AF919F918F917F919D
S1130FF06F915F914F913F912F910F900FBE0F9082
S11310001F90189594B1906B94B995B1906195B96E
S113101090E59CBD883021F0803211F0823019F4C3
S113102091E09DBD01C01DBC803269F028F4883078
S113103071F0803161F00EC0803429F0803851F4B1
S11310408CB581608CBD8CB582608CBD03C08CB5C1
S113105081608CBD85B18F7E85B908958EBD0DB438
S113106007FEFDCF8EB508959F938F937F936F9363
S113107083ED90E09F938F930E944A090F900F9005
S11310800F900F900F900F9008958EEC90E09F9327
S11310908F930E944A090F900F9008951092BD01FA
S11310A01092BE011092BF011092C00116BC8CE7D1
S11310B087BD82E084BD83E085BDEEE6F0E08081FB
S11310C08260808385B3827085BB08958FB7282F93
S11310D02078F8946091BD017091BE018091BF01A8
S11310E09091C001222309F0789408951F920F92E1
S11310F00FB60F9211248F939F93AF93BF93809158
S1131100BD019091BE01A091BF01B091C0010196B3
S1131110A11DB11D8093BD019093BE01A093BF0199
S1131120B093C001BF91AF919F918F910F900FBE6B
S11311300F901F901895A1E21A2EAA1BBB1BFD014C
S11311400DC0AA1FBB1FEE1FFF1FA217B307E407A2
S1131150F50720F0A21BB30BE40BF50B661F771FFA
S1131160881F991F1A9469F76095709580959095DA
S11311709B01AC01BD01CF010895052E97FB1EF420
S113118000940E94D40857FD07D00E949B0807FCD6
S113119003D04EF40C94D408509540953095219585
S11311A03F4F4F4F5F4F089590958095709561958F
S11311B07F4F8F4F9F4F08950E94E708A59F900D82
S11311C0B49F900DA49F800D911D11240895A29F9A
S11311D0B001B39FC001A39F700D811D1124911D07
S11311E0B29F700D811D1124911D0895CF93DF933B
S11311F0EC012B8120FF33C026FF0AC02F7B2B83F9
S11312008E819F8101969F838E838A8190E029C07D
S113121022FF0FC0E881F9818081082E000C990B10
S1131220009719F420622B831AC03196F983E8835E
S11312300EC0EA85FB85099597FF09C02B810196AD
S113124011F080E201C080E1822B8B8308C02E81E3
S11312503F812F5F3F4F3F832E83992702C08FEF3B
S11312609FEFDF91CF910895A0E0B0E0EAE3F9E0C9
S11312700C94110CAE014B5F5F4FFA0161917191B7
S1131280AF018091E4029091E5020E947009E2E0CE
S11312900C942D0CA0E0B0E0E0E5F9E00C940F0C08
S11312A0AE01495F5F4FDA016D917D91AD0102EEB0
S11312B012E0F80182819381DC0113962C9113973B
S11312C0286013962C930E947009D8011296ED9110
S11312D0FC9113972381277F2383E4E00C942B0C48
S11312E0ABE0B0E0E6E7F9E00C94010C6C017B01A3
S11312F08A01FC0117821682838181FFCCC1CE0151
S113130001963C01F6019381F70193FD859193FFCA
S113131081917F01882309F4BAC1853239F493FDA0
S1131320859193FF81917F01853229F4B60190E084
S11313300E94670BE7CF912C212C312CFFE1F31590
S1131340D8F08B3279F038F4803279F08332A1F41A
S1131350232D20611DC08D3261F0803369F4232D6B
S1131360216016C0832D8260382EE32DE4603E2E6A
S11313702AC0F32DF8601DC037FC2DC020ED280FC6
S11313802A3040F08E32B9F436FC81C1232D20641A
S1131390322E19C036FE06C08AE0989E200D112414
S11313A0922E11C0EAE02E9E200D1124222EF32D40
S11313B0F0623F2E08C08C3621F4832D8068382ECD
S11313C002C0883641F4F70193FD859193FF819122
S11313D07F018111B3CF982F9F7D9554933028F4CA
S11313E00C5F1F4F9FE399830DC0833631F0833721
S11313F071F0833509F059C021C0F80180818983D7
S11314000E5F1F4F88248394912C530113C028012D
S1131410F2E04F0E511CF801A080B18036FE03C0EB
S1131420692D70E002C06FEF7FEFC5010E945C0B75
S11314304C018201F32DFF773F2E16C0280122E0D4
S1131440420E511CF801A080B18036FE03C0692D04
S113145070E002C06FEF7FEFC5010E94510B4C0199
S1131460F32DF0683F2E820133FC1BC0822D90E0E7
S113147088169906B0F4B60180E290E00E94670BEA
S11314802A94F4CFF50137FC859137FE81915F01F1
S1131490B60190E00E94670B21102A9421E0821A81
S11314A091088114910471F7E8C0843611F08936EB
S11314B041F5F80137FE07C0608171818281938113
S11314C00C5F1F4F08C060817181072E000C880BD0
S11314D0990B0E5F1F4FF32DFF763F2E97FF09C028
S11314E090958095709561957F4F8F4F9F4FF068D1
S11314F03F2E2AE030E0A3010E94A30B882E861819
S113150045C0853731F4232D2F7EB22E2AE030E0FA
S113151025C0932D997FB92E8F36C1F018F48835E4
S113152079F0B5C0803719F0883721F0B0C0E92FC1
S1131530E061BE2EB4FE0DC0FB2DF460BF2E09C0C9
S113154034FE0AC0292F2660B22E06C028E030E0FF
S113155005C020E130E002C020E132E0F801B7FE2E
S113156007C060817181828193810C5F1F4F06C027
S11315706081718180E090E00E5F1F4FA3010E94A3
S1131580A30B882E8618FB2DFF773F2E36FE0DC049
S1131590232D2E7FA22E891458F434FE0BC032FC66
S11315A009C0832D8E7EA82E05C0B82CA32C03C0A1
S11315B0B82C01C0B92CA4FE0FC0FE01E80DF11D2A
S11315C08081803321F49A2D997EA92E09C0A2FE30
S11315D006C0B394B39404C08A2D867809F0B394FA
S11315E0A3FC11C0A0FE06C0B21488F4280C922CEF
S11315F09B180EC0B21460F4B60180E290E00E9421
S1131600670BB394F7CFB21418F42B1802C0982CBC
S1131610212CA4FE10C0B60180E390E00E94670B69
S1131620A2FE17C0A1FC03C088E790E002C088E5D1
S113163090E0B6010CC08A2D867859F0A1FE02C054
S11316408BE201C080E2A7FC8DE2B60190E00E942B
S1131650670B891438F4B60180E390E00E94670BAD
S11316609A94F7CF8A94F301E80DF11D8081B601B5
S113167090E00E94670B8110F5CF222009F442CE3E
S1131680B60180E290E00E94670B2A94F6CFF6013F
S11316908681978102C08FEF9FEF2B96E2E10C9435
S11316A01D0CFC010590615070400110D8F7809525
S11316B090958E0F9F1F0895FC016150704001901A
S11316C00110D8F7809590958E0F9F1F08950F9362
S11316D01F93CF93DF93FB01238121FD03C08FEF81
S11316E09FEF2CC022FF16C046815781248135818B
S11316F04217530744F4A081B1819D012F5F3F4FEE
S1131700318320838C93268137812F5F3F4F37832A
S1131710268314C08B01EC01FB010084F185E02DCC
S11317200995892BE1F6D80116968D919C9117970E
S1131730019617969C938E931697CE01DF91CF91C5
S11317401F910F910895FA01AA27283051F12031F1
S113175081F1E8946F936E7F6E5F7F4F8F4F9F4F41
S1131760AF4FB1E03ED0B4E03CD0670F781F891F83
S11317709A1FA11D680F791F8A1F911DA11D6A0F51
S1131780711D811D911DA11D20D009F468943F9104
S11317902AE0269F11243019305D3193DEF6CF0103
S11317A00895462F4770405D4193B3E00FD0C9F7C9
S11317B0F6CF462F4F70405D4A3318F0495D31FD36
S11317C04052419302D0A9F7EACFB4E0A695979589
S11317D0879577956795BA95C9F70097610571055F
S11317E008959B01AC010A2E0694579547953795A9
S11317F02795BA95C9F7620F731F841F951FA01D03
S113180008952F923F924F925F926F927F928F92A0
S11318109F92AF92BF92CF92DF92EF92FF920F937B
S11318201F93CF93DF93CDB7DEB7CA1BDB0B0FB685
S1131830F894DEBF0FBECDBF09942A883988488842
S11318405F846E847D848C849B84AA84B984C884D8
S1131850DF80EE80FD800C811B81AA81B981CE0FCF
S1131860D11D0FB6F894DEBF0FBECDBFED010895B4
S1071870F894FFCF16
S113187440FF3F065B4F0000000300000000B40675
S1131884EC060000E7012101E7012101E701000161
S1131894FF00C300FF0081008100810081008100FA
S11318A48100FF0053746174696F6E61727900552D
S11318B47000446F776E0043757272656E74204CC9
S11318C46576656C3A2025640044697265637469BD
S11318D46F6E3A20257300466C6F6F7273207769BC
S11318E474682074726176656C6C65723A20256C38
S11318F47500466C6F6F727320776974686F7574C2
S11319042074726176656C6C65723A20256C75007E
S9030000FC
