:100000000C946E000C948B000C948B000C948B0061
:100010000C948B000C94C5000C948B000C948B00FA
:100020000C948B000C948B000C948B000C948B0024
:100030000C948B000C948B000C948B000C948B0014
:100040000C943A060C948B000C948B000C948B004F
:100050000C9473050C9431050C948B000C948B005C
:100060000C948B000C948B000C948B000C948B00E4
:100070000C948B000C948B000C948B00537475645F
:10008000656E74204E756D6265723A20343838346E
:10009000303436380043535345323031302070729B
:1000A0006F6A656374206279204C6163686C616E6D
:1000B00020486F6C6C6964617900456C6576617489
:1000C0006F7220436F6E74726F6C6C6572001B5B95
:1000D000324A001B5B25643B2564480011241FBE87
:1000E000CFEFD8E0DEBFCDBF11E0A0E0B1E0E8EC9B
:1000F000F3E102C005900D92A236B107D9F722E0D4
:10010000A2E6B1E001C01D92A439B207E1F70E9456
:100110002E040C94E2090C940000E8E6F0E08081E3
:10012000826080838BB382608BBBECE6F0E08081E1
:100130008F60808310926201089580916201181689
:1001400014F5809163016FB7F89491E009C0F9014B
:10015000ED59FE4F4081F901EE59FE4F40839F5FFC
:10016000292F30E040916201042E000C550B24171A
:1001700035076CF390916201915090936201662370
:100180001CF4789408958FEF08951F920F920FB684
:100190000F9211242F933F934F938F939F93EF933D
:1001A000FF9343B14F7080E026C09091620194307C
:1001B0000CF5242F30E0082E02C0359527950A94BF
:1001C000E2F720FF17C02091670130E0082E02C03F
:1001D000359527950A94E2F720FD0CC0E091620165
:1001E00091E09E0F909362010E2E000CFF0BED59D3
:1001F000FE4F80838F5F8430C0F240936701FF9190
:10020000EF919F918F914F913F912F910F900FBE42
:100210000F901F9018950E94740408951F93CF9318
:10022000DF93CDB7DEB728970FB6F894DEBF0FBEC9
:10023000CDBF0E94740410E02CC0E12FF0E0EE0F5F
:10024000FF1FE15FFE4F2081318130FF02C09FE040
:1002500001C090EF80E014C020FF08C0E1E0F0E0B2
:10026000EC0FFD1FE80FF11D908307C0E1E0F0E007
:10027000EC0FFD1FE80FF11D1082369527958F5F5B
:10028000883050F3BE016F5F7F4F812F0E9457046B
:100290001F5F103190F228960FB6F894DEBF0FBEA4
:1002A000CDBFDF91CF911F9108950F931F93CF93EF
:1002B000DF93CDB7DEB728970FB6F894DEBF0FBE39
:1002C000CDBF082F19E03AC0402F50E023E030E0C6
:1002D000241B350B81E090E0BC0102C0660F771F44
:1002E0002A95E2F79B0120684C5F5F4F02C0880FA0
:1002F000991F4A95E2F7282B392B216080E015C021
:1003000020FF09C0E1E0F0E0EC0FFD1FE80FF11D58
:1003100090EF908307C0E1E0F0E0EC0FFD1FE80FE5
:10032000F11D1082369527958F5F883048F3BE0106
:100330006F5F7F4F812F0E9457041F5F1F3020F295
:1003400028960FB6F894DEBF0FBECDBFDF91CF91D8
:100350001F910F910895883008F56031F8F441300D
:1003600061F0423061F0433061F0443061F045307B
:1003700061F0463061F443E10BC04FE009C040EF4B
:1003800007C041E005C041E103C045E301C040E0D2
:10039000962F682F8FE0891B0E94380408950E94D1
:1003A00034040E948D0040E060E07BE480E090E057
:1003B0000E94DE040E941206789408958F929F9204
:1003C000AF92BF92CF92DF92EF92FF92CF93DF93E3
:1003D0000E9409066AE070E08AE090E00E94F80559
:1003E0008AEB90E09F938F930E94F4066CE070E09C
:1003F0008AE090E00E94F80585E990E09F938F9352
:100400000E94F4066EE070E08AE090E00E94F80539
:100410008CE790E09F938F930E94F4060E940E0158
:100420000F900F900F900F900F900F90D1E0C0E0C1
:100430000F2EF6E98F2E912CA12CB12CF02DC12C72
:10044000D12C76010E942A06DC01CB018C199D0972
:10045000AE09BF0988169906AA06BB06C0F58C2FFF
:100460000E9455010E942A066B017C01DD23B1F038
:10047000CF5FC13041F00F2EF6E98F2E912CA12CC9
:10048000B12CF02D08C00F2EF0ED8F2EF7E09F2E2F
:10049000A12CB12CF02DC330D1F416C0C150C23004
:1004A00041F00F2EF6E98F2E912CA12CB12CF02DBE
:1004B00008C00F2EF4EF8F2E99249394A12CB12C09
:1004C000F02DCC2319F003C0D0E001C0D1E00E9490
:1004D0002505882339F080918E0290918F020E9429
:1004E000A00601C08FEF833739F0833529F00E94D1
:1004F0009D008F3F09F4A6CFDF91CF91FF90EF9041
:10050000DF90CF90BF90AF909F908F900895CF9342
:10051000C0E015C042E060E08C2F0E94AB0142E0D9
:1005200064E08C2F0E94AB0142E068E08C2F0E94B7
:10053000AB0142E06CE08C2F0E94AB01CF5FC83072
:1005400048F3CF910895609100016F3F49F0062E66
:10055000000C770B6F5F7F4F40E085E00E94AB019E
:1005600080916901882381F060917401062E000C4E
:10057000770B6F5F7F4F43E085E00E94AB01809176
:1005800074018093000108958FEF80930001089516
:10059000CF93DF9360916801262F30E0809179013D
:1005A000082E000C990B821793071CF4C3E0C60FAA
:1005B00007C0281739071CF4C1E0C60F01C0C0E00E
:1005C0008C2F837051F040E06C2F81E00E94AB01D2
:1005D00040E06C2F82E00E94AB0180917901809312
:1005E0006801C1E011C0D0917901DC0F8D2F8370BB
:1005F00051F041E06D2F81E00E94AB0141E06D2F91
:1006000082E00E94AB01CF5FC43068F3DF91CF91ED
:100610000895CF930E949D00C82F0E94250588232E
:1006200039F080918E0290918F020E94A00601C045
:100630008FEF9091690191113AC0CC2311F0803372
:1006400051F41092750181E0809369011092740158
:100650000E94A3022CC0C13011F0813359F484E010
:10066000809375018093740181E0809369010E94F9
:10067000A3021DC0C23011F0823359F488E0809388
:10068000750191E090936901809374010E94A30227
:100690000EC0C33011F0833351F48CE080937501A8
:1006A00091E090936901809374010E94A302CF911D
:1006B00008950E9409060E940B010E949D000E945D
:1006C0002C050E942A06609370017093710180933B
:1006D000720190937301109279011092750110923A
:1006E00076018FE291E0909378018093770181E029
:1006F00080936A010E94C8020E94870210927901C9
:10070000109275010E942A060091700110917101EA
:100710002091720130917301DC01CB01801B910BA0
:10072000A20BB30B893C9105A105B10508F45BC090
:100730002091790180917501082E000C990B821B84
:10074000910927FD9395181619066CF42F5F2093D5
:10075000790181E080936A018AE391E090937801C6
:100760008093770115C099236CF42150209379016F
:1007700081E080936A018DE391E09093780180930A
:10078000770106C08FE291E0909378018093770122
:100790009091750180917901981306C02FE231E0A4
:1007A000309378012093770190916901992341F06A
:1007B00090917401891304C0109269010E94A302F0
:1007C00080917901982F937011F4809376010E94A3
:1007D000C8020E942A066093700170937101809391
:1007E00072019093730180916A018823A1F10E94A4
:1007F00009068091760188230CF48D5F182F1595DA
:1008000015956AE070E08AE090E00E94F8051F927A
:100810001F9382E491E09F938F930E94DE066CE029
:1008200070E08AE090E00E94F805809178018F9353
:10083000809177018F9384E591E09F938F930E943D
:10084000DE0610926A018DB79EB708960FB6F8942F
:100850009EBF0FBE8DBF0E94090354CF0E94CF01DF
:100860000E94DE010E94590380E80E94C605089597
:100870001F93CF93DF938031B0F46830A0F4142F2E
:10088000C62FD82F81E00E94F2056C2F677080E19F
:10089000689F900111248D2F8F70822B0E94F2058A
:1008A000812F0E94F205DF91CF911F9108950F9340
:1008B0001F93CF938031A0F48B01C82F83E00E9457
:1008C000F2058C2F8F700E94F205C0E007C0F8017E
:1008D000EC0FF11D80810E94F205CF5FC830B8F3A4
:1008E000CF911F910F9108958FE00E94F205089516
:1008F000CF93C82F8A3019F48DE00E9478049FB7F7
:10090000907802C0992329F180917B018F3FD1F328
:10091000F894E0917A0181E08E0F80937A01F0E003
:10092000E458FE4FC08380917B018F5F80937B01F1
:1009300080917A018F3F11F410927A01E1ECF0E09E
:10094000808180628083992339F0789480E090E000
:1009500005C081E090E002C080E090E0CF91089572
:1009600080918D028823E1F32FB72078F89480914D
:100970007B0230918D0290E0831B91095AF4E09143
:100980007B0280918D02F0E0E81BF109E457FD4FF6
:1009900080810AC0E0917B0280918D02F0E0E81B2B
:1009A000F109E458FD4F808190918D029150909310
:1009B0008D02222309F0789490E0089510927A0134
:1009C00010927B0110927B0210928D0210928C0289
:1009D00040936B01DC01CB01880F991FAA1FBB1F3D
:1009E000880F991FAA1FBB1F9C01AD01220F331F47
:1009F000441F551F60E072E18AE790E00E945F06A5
:100A0000BA01A9014F5F5F4F6F4F7F4FDB01CA01F2
:100A10001AF40196A11DB11DB595A79597958795D7
:100A200001979093C5008093C400E1ECF0E088E169
:100A30008083808180688083EEE8F2E081E091E04D
:100A40009383828391838083089590918D0281E0C6
:100A5000911101C080E0089510927B0210928D02E6
:100A600008951F920F920FB60F9211242F938F9318
:100A70009F93EF93FF9380917B01882329F18091CD
:100A80007A0120917B0190E0821B91095AF4E09158
:100A90007A0180917B01F0E0E81BF109E558FD4FF8
:100AA00090810AC0E0917A0180917B01F0E0E81B1F
:100AB000F109E458FE4F908180917B018150809331
:100AC0007B019093C60005C0E1ECF0E080818F7D52
:100AD0008083FF91EF919F918F912F910F900FBE87
:100AE0000F901F9018951F920F920FB60F9211241E
:100AF0002F933F934F935F936F937F938F939F9326
:100B0000AF93BF93CF93EF93FF93C091C6008091B3
:100B10006B01882349F080917B018F3F29F060E0D1
:100B200070E08C2F0E94780480918D02803120F03B
:100B300081E080938C0218C0CD3009F4CAE0E091C6
:100B40007B0281E08E0F80937B02F0E0E458FD4F42
:100B5000C08380918D028F5F80938D0280917B0294
:100B6000803111F410927B02FF91EF91CF91BF91F0
:100B7000AF919F918F917F916F915F914F913F9135
:100B80002F910F900FBE0F901F90189594B1906BFE
:100B900094B995B1906195B990E59CBD883021F0EC
:100BA000803211F0823019F491E09DBD01C01DBC6E
:100BB000803269F028F4883071F0803161F00EC025
:100BC000803429F0803851F48CB581608CBD8CB5AF
:100BD00082608CBD03C08CB581608CBD85B18F7E79
:100BE00085B908958EBD0DB407FEFDCF8EB508956D
:100BF0009F938F937F936F9383ED90E09F938F9359
:100C00000E94F4060F900F900F900F900F900F908E
:100C100008958EEC90E09F938F930E94F4060F90BE
:100C20000F90089510926C0110926D0110926E0158
:100C300010926F0116BC8CE787BD82E084BD83E013
:100C400085BDEEE6F0E080818260808385B38270AE
:100C500085BB08958FB7282F2078F89460916C0198
:100C600070916D0180916E0190916F01222309F0C6
:100C7000789408951F920F920FB60F9211248F93BC
:100C80009F93AF93BF9380916C0190916D01A09160
:100C90006E01B0916F010196A11DB11D80936C0191
:100CA00090936D01A0936E01B0936F01BF91AF91CE
:100CB0009F918F910F900FBE0F901F901895052E4A
:100CC00097FB1EF400940E94760657FD07D00E9401
:100CD0007E0607FC03D04EF40C94760650954095A2
:100CE000309521953F4F4F4F5F4F089590958095D8
:100CF000709561957F4F8F4F9F4F0895A1E21A2EF7
:100D0000AA1BBB1BFD010DC0AA1FBB1FEE1FFF1FAF
:100D1000A217B307E407F50720F0A21BB30BE40BFF
:100D2000F50B661F771F881F991F1A9469F7609546
:100D30007095809590959B01AC01BD01CF01089500
:100D4000CF93DF93EC012B8120FF33C026FF0AC035
:100D50002F7B2B838E819F8101969F838E838A8137
:100D600090E029C022FF0FC0E881F9818081082E20
:100D7000000C990B009719F420622B831AC031964E
:100D8000F983E8830EC0EA85FB85099597FF09C0C2
:100D90002B81019611F080E201C080E1822B8B83D0
:100DA00008C02E813F812F5F3F4F3F832E839927BD
:100DB00002C08FEF9FEFDF91CF910895A0E0B0E0E8
:100DC000E4EEF6E00C94BB09AE014B5F5F4FFA0115
:100DD00061917191AF0180919002909191020E9476
:100DE0001A07E2E00C94D709A0E0B0E0EAEFF6E0E1
:100DF0000C94B909AE01495F5F4FDA016D917D91A5
:100E0000AD010EE812E0F80182819381DC011396B6
:100E10002C911397286013962C930E941A07D801DF
:100E20001296ED91FC9113972381277F2383E4E0B1
:100E30000C94D509ABE0B0E0E0E2F7E00C94AB092C
:100E40006C017B018A01FC0117821682838181FF7C
:100E5000CCC1CE0101963C01F6019381F70193FDCF
:100E6000859193FF81917F01882309F4BAC185326E
:100E700039F493FD859193FF81917F01853229F4A7
:100E8000B60190E00E941109E7CF912C212C312C62
:100E9000FFE1F315D8F08B3279F038F4803279F035
:100EA0008332A1F4232D20611DC08D3261F0803387
:100EB00069F4232D216016C0832D8260382EE32D26
:100EC000E4603E2E2AC0F32DF8601DC037FC2DC013
:100ED00020ED280F2A3040F08E32B9F436FC81C163
:100EE000232D2064322E19C036FE06C08AE0989E5B
:100EF000200D1124922E11C0EAE02E9E200D112407
:100F0000222EF32DF0623F2E08C08C3621F4832D63
:100F10008068382E02C0883641F4F70193FD859130
:100F200093FF81917F018111B3CF982F9F7D9554BD
:100F3000933028F40C5F1F4F9FE399830DC08336D5
:100F400031F0833771F0833509F059C021C0F801C1
:100F5000808189830E5F1F4F88248394912C5301D5
:100F600013C02801F2E04F0E511CF801A080B1809F
:100F700036FE03C0692D70E002C06FEF7FEFC50140
:100F80000E9406094C018201F32DFF773F2E16C007
:100F9000280122E0420E511CF801A080B18036FEEB
:100FA00003C0692D70E002C06FEF7FEFC5010E94A2
:100FB000FB084C01F32DF0683F2E820133FC1BC06F
:100FC000822D90E088169906B0F4B60180E290E098
:100FD0000E9411092A94F4CFF50137FC859137FE60
:100FE00081915F01B60190E00E94110921102A94BD
:100FF00021E0821A91088114910471F7E8C08436C7
:1010000011F0893641F5F80137FE07C06081718122
:10101000828193810C5F1F4F08C060817181072E10
:10102000000C880B990B0E5F1F4FF32DFF763F2EA0
:1010300097FF09C090958095709561957F4F8F4F70
:101040009F4FF0683F2E2AE030E0A3010E944D0937
:10105000882E861845C0853731F4232D2F7EB22E79
:101060002AE030E025C0932D997FB92E8F36C1F04C
:1010700018F4883579F0B5C0803719F0883721F039
:10108000B0C0E92FE061BE2EB4FE0DC0FB2DF460B0
:10109000BF2E09C034FE0AC0292F2660B22E06C01A
:1010A00028E030E005C020E130E002C020E132E07D
:1010B000F801B7FE07C060817181828193810C5F66
:1010C0001F4F06C06081718180E090E00E5F1F4F6E
:1010D000A3010E944D09882E8618FB2DFF773F2E15
:1010E00036FE0DC0232D2E7FA22E891458F434FE17
:1010F0000BC032FC09C0832D8E7EA82E05C0B82CF3
:10110000A32C03C0B82C01C0B92CA4FE0FC0FE0153
:10111000E80DF11D8081803321F49A2D997EA92E4E
:1011200009C0A2FE06C0B394B39404C08A2D867889
:1011300009F0B394A3FC11C0A0FE06C0B21488F459
:10114000280C922C9B180EC0B21460F4B60180E2F9
:1011500090E00E941109B394F7CFB21418F42B1841
:1011600002C0982C212CA4FE10C0B60180E390E0B0
:101170000E941109A2FE17C0A1FC03C088E790E0FD
:1011800002C088E590E0B6010CC08A2D867859F03F
:10119000A1FE02C08BE201C080E2A7FC8DE2B60195
:1011A00090E00E941109891438F4B60180E390E0C0
:1011B0000E9411099A94F7CF8A94F301E80DF11D6A
:1011C0008081B60190E00E9411098110F5CF2220A4
:1011D00009F442CEB60180E290E00E9411092A94FF
:1011E000F6CFF6018681978102C08FEF9FEF2B9695
:1011F000E2E10C94C709FC010590615070400110B8
:10120000D8F7809590958E0F9F1F0895FC0161502F
:10121000704001900110D8F7809590958E0F9F1F18
:1012200008950F931F93CF93DF93FB01238121FD3B
:1012300003C08FEF9FEF2CC022FF16C0468157815D
:10124000248135814217530744F4A081B1819D0167
:101250002F5F3F4F318320838C93268137812F5F0F
:101260003F4F3783268314C08B01EC01FB010084C0
:10127000F185E02D0995892BE1F6D80116968D911F
:101280009C911797019617969C938E931697CE0173
:10129000DF91CF911F910F910895FA01AA2728306D
:1012A00051F1203181F1E8946F936E7F6E5F7F4F33
:1012B0008F4F9F4FAF4FB1E03ED0B4E03CD0670FAF
:1012C000781F891F9A1FA11D680F791F8A1F911D02
:1012D000A11D6A0F711D811D911DA11D20D009F452
:1012E00068943F912AE0269F11243019305D319394
:1012F000DEF6CF010895462F4770405D4193B3E07D
:101300000FD0C9F7F6CF462F4F70405D4A3318F023
:10131000495D31FD4052419302D0A9F7EACFB4E0D4
:10132000A6959795879577956795BA95C9F700978C
:101330006105710508959B01AC010A2E069457952D
:10134000479537952795BA95C9F7620F731F841F84
:10135000951FA01D08952F923F924F925F926F921A
:101360007F928F929F92AF92BF92CF92DF92EF9235
:10137000FF920F931F93CF93DF93CDB7DEB7CA1BB6
:10138000DB0B0FB6F894DEBF0FBECDBF09942A88E1
:10139000398848885F846E847D848C849B84AA8489
:1013A000B984C884DF80EE80FD800C811B81AA8116
:1013B000B981CE0FD11D0FB6F894DEBF0FBECDBFE1
:0813C000ED010895F894FFCF40
:1013C800FF00000003000000007804B0040000E7FC
:1013D800012101E7012101E7010001FF00C300FF2E
:1013E80000810081008100810081008100FF00539D
:1013F800746174696F6E61727900557000446F771B
:101408006E0043757272656E74204C6576656C3A31
:1014180020256400446972656374696F6E3A2025FB
:0214280073004F
:00000001FF
